:020000040800F2
:100000004820002005010008795900085F480008D1
:100010007559000885180008F56100080000000007
:100020000000000000000000000000007D5D0008EE
:100030004D1A0008000000007D5900087F5D00088F
:100040001F0100081F0100081F0100081F01000810
:100050001F0100081F0100081F0100081F01000800
:100060001F0100081F0100081F0100081F010008F0
:100070001F0100081F0100081F0100081F010008E0
:100080001F0100081F0100081F0100081F010008D0
:100090001F0100081F0100081F0100081F010008C0
:1000A0001F0100081F0100081F0100081F010008B0
:1000B0001F0100081F0100081F0100081F010008A0
:1000C0001F0100081F0100081F0100081F01000890
:1000D0001F0100081F010008D5610008E561000844
:1000E0001F0100081F0100081F010008DFF810D0E1
:1000F00001F056F80048004735700008AFF3008063
:10010000482000200648804706480047FEE7FEE7F3
:10011000FEE7FEE7FEE7FEE7FEE7FEE7FEE7FEE7B7
:100120000F5E0008ED000008202A04DB203A21FAC7
:1001300002F00021704721FA02F3D040C2F1200200
:10014000914008431946704738B5D0E90221491E4D
:1001500001EB410102EBC1014268C1EB011102EB6D
:1001600081010268C1EB011102EB8102D0E9043187
:1001700001EB410103EB81013023A1F5527191FBA9
:10018000F3F4174D6C4302EBC41291FBF3F403FB41
:10019000141100921A2902DB124B1A4400920C220D
:1001A00091FBF2F3104C6343009C04EBC3130093E8
:1001B00091FBF2F302FB13110C4A08E0491E40F2D6
:1001C000A324535C6343009C04EBC31300930029F6
:1001D000F4DC0146684600F087FE009838BD000058
:1001E0003F0C0F008051010067C20300EC7800084B
:1001F00040EA01039B0703D009E008C9121F08C0A9
:10020000042AFAD203E011F8013B00F8013B521E28
:10021000F9D27047D2B201E000F8012B491EFBD29F
:1002200070470022F6E710B513460A460446194601
:10023000FFF7F0FF204610BD30B505462A460B46B5
:1002400012F8010B13F8014B08B1A042F8D01CB111
:10025000002802D06D1CF1E7284630BD421C10F882
:10026000011B0029FBD1801A7047034611F8012BAE
:1002700000F8012B002AF9D1184670470022CBB2B2
:100280000178994200D10246401C0029F8D110465D
:10029000704700000FB400B58DB010A909900B9005
:1002A00000914FF0FF300A9000200C900548069016
:1002B000054807906A4609A80F9900F06FFE0DB037
:1002C0005DF814FBB90F0008D70F00082DE9FF5F98
:1002D0001D464FF0FF3BD5E9014691465F464FF082
:1002E0000008A9697F1C01988847296A82468847C7
:1002F0000028F6D1BAF1FF3F0CD024F4C064002EE0
:1003000019DD600614D5BAF12B0F09D0BAF12D0F03
:100310000ED103E0584604B0BDE8F09F44F4806479
:10032000A9697F1C01988847761E8246002E02DD4F
:10033000BAF1300F03D0B9F1000F26D032E0A9692D
:10034000761E44F400747F1C019888478246002E74
:1003500005DDBAF1780F06D0BAF1580F03D0B9F124
:10036000000F10D01EE0B9F1000F02D0B9F1100F4C
:1003700018D1A969761E24F400747F1C019888475F
:100380008246102002E0082000E00A20814609E0B1
:1003900008FB0908A969761E44F400747F1C0198C3
:1003A00088478246002E05DD4946504600F0E2FDB2
:1003B0000028EDDAE96901988847A00502D46FF0BA
:1003C0000100A8E7E00725D1600613D5600502D536
:1003D000C8F1000000E0404629680A1D2A6009684B
:1003E000220501D5087015E0220701D5088011E02B
:1003F00008600FE02868011D29600068210502D50A
:1004000080F8008006E0210702D5A0F8008001E016
:10041000C0F8008038467EE72DE9FF5FD2E901A7EA
:100420004FF00008916999461446DDF838B0464609
:1004300001988847054659EA0B0005D009E0A169F3
:10044000761C019888470546216A28468847002877
:10045000F5D1681C03D05FEACA7005D015E04FF0F3
:10046000FF3004B0BDE8F09F2068011D2160D0F886
:1004700000800AE05FEACA7001D108F8015BA16957
:10048000761C7F1E019888470546002F1ADD681CE0
:1004900018D0B9F1000F0DD0E81705EBD06042116C
:1004A00020F01F0059F822102A1A01209040014222
:1004B000E0D107E0BBF1000FDCD1216A2846884774
:1004C0000028D7D0E16901988847BBF1000F07D118
:1004D000002E05DD5FEACA7002D1002188F8001005
:1004E000A068B84203DDBBF1000F03D017B16FF075
:1004F0000100B6E73046B4E72DE9FF4F087883B036
:100500009946FF2805D0491C2D2804D0002400203E
:1005100008E000200BE00124F9E700EB800003EB8A
:100520004000491C0B78FF2BF7D104B14042002357
:100530000293147819461D462D2C01D02B2C04D182
:10054000521C2D2C13D000240294AA461478FF2CA0
:100550000FD00A25A3FB057801FB05814FF0000CA5
:1005600003FB0C11521CE3194AEB0101EEE70124D5
:10057000EAE7814453EA010002D019F5C87F06DAA0
:1005800003980021C0E9001107B0BDE8F08F0025F5
:10059000AE4E2F46DFF8B882184600F0C1FDCDE917
:1005A0000001B9F1000002DAC9F1000400E00446DC
:1005B0000023A74A1AEB030B42EB045A12E0E007B0
:1005C00007D02A4633463846414600F082FA0746AD
:1005D00088462A4633461046194600F07AFA054600
:1005E0000E466410002CEAD1DDE90001B9F1000FDC
:1005F0005A46534606DA00F0DEFA3A46434600F021
:10060000DAFA05E000F065FA3A46434600F061FA8E
:10061000029A0AB181F00041039AC2E90001B3E7EE
:100620002DE9FF4F1F468DB0D7E901464FF0FF3847
:100630002E2045464FF000090B90B9696D1C0E98AD
:100640008847396A824688470028F6D1BAF1FF3FC9
:100650000AD024F4D064002E11DDBAF12B0F08D09B
:10066000BAF12D0F0BD102E0404611B08DE744F4F2
:100670008064B9696D1C0E9888478246761E69466B
:10068000600501D52D2000E02B208DF8000001F140
:10069000010B0DF1200809E0B9696D1C0E9888471F
:1006A00082460F9844F40074761E0560002E02DD29
:1006B000BAF1300FF0D00B998A453ED144F0800456
:1006C00006E00F99681CA9F1010944F40074086060
:1006D000B9696D1C761E0E98884782463028F0D086
:1006E0002BE00B998A4505D1200603D444F0800401
:1006F000761E18E0504605F0E7FE08B30DF1130131
:10070000761E44F400748B4508D2AAF130000BF831
:10071000010B200607D5A9F1010003E0200602D451
:1007200009F101008146A00502D50F99681C0860F7
:10073000B9696D1C0E9888478246002ED1DC53E0C3
:10074000002E51DDBAF1650F02D0BAF1450F4BD141
:10075000A00549D5B9696D1C24F44074761E0E9825
:1007600088478246002E0CDD2B2804D0BAF12D0FCD
:1007700007D144F48074B9696D1C0E98884782468D
:10078000761EE00501D52D2100E02B2108F8011B84
:10079000CDF82C8021E00DF12901761E44F400747F
:1007A00088450CD2AAF1300010F0FF0088F8000054
:1007B00002D10B99884509D908F1010806E0E00546
:1007C00001D5244801E042F20F708146B9696D1CE1
:1007D0000E98884782460F980560002E04DD50462B
:1007E00005F072FE0028D6D1F9690E988847FF20DF
:1007F0008BF8000088F800000020069007904B4618
:100800006A4608A906A8FFF777FEA00502D46FF094
:1008100001002AE714F0240F0AD0E00714D1DDE923
:1008200006123868031D3B600068C0E900120BE047
:10083000DDE9060100F098FC0146E00704D13868C4
:10084000021D3A600068016028460EE7000014406F
:100850000000F03FF1D8FFFFF0B480EA0102D40FAE
:100860004200B2EB410F02D20246084611464A004E
:1008700042D0C30DDDB2C1F3C752AD1A202D35DA17
:10088000C1F3160141F4000204B15242C5F1200641
:1008900002FA06F12A411044B3EBD05F23D0C4B171
:1008A000012DA0EBC35009DCF0BC4FF0004202EA7E
:1008B000C352DBB200F5000000F0A7BB400000F11E
:1008C000807000EBC350A0F1807040EAD170490005
:1008D00009E0490841EAC071A0EBC35000F50000EF
:1008E000400800EBC350F0BC00F086BB614201221F
:1008F00002EB4101001BF6E7F0BC704781F00041BC
:10090000AAE780F00040A7E730B480EA010202F0D5
:10091000004530F0004221F0004013D090B1C30DEB
:10092000D40DC2F31601C0F31600E41A41F400011D
:1009300040F400027D34914201D3641C00E0490080
:10094000002C02DA30BC002070474FF40000002376
:10095000914201D3891A034340084FEA4101F7D17C
:1009600051B1914202D14FF0004105E002D24FF067
:10097000010101E06FF0010103EBC450284430BCD9
:1009800000F03ABB2DE9FE4F804681EA0300C00F1C
:100990000C46009021F0004123F00045B8EB020026
:1009A000A94105D24046214690461C460B460246C8
:1009B00023F00040104347D0270DC7F30A00C3F3CC
:1009C0000A510290401A019040286BDAC3F31300D9
:1009D00040F4801B0098924620B10023D2EB030A1A
:1009E00063EB0B0B01985946C0F14002504600F0F2
:1009F00054FA06460D4650465946019A00F05CFAF4
:100A000010EB08006141002487EA115284EAE77381
:100A10001A4340D0009A62B3019A012A4FEA075262
:100A200015DC001B61EB02014FF0004202EA0752A5
:100A3000CDE90042001C41F5801132462B4600F002
:100A400021FB03B0BDE8F08F40462146F9E7001BCB
:100A500061EB0201001C41F5801300185B41201876
:100A6000A2F5001747EB030140EAD570B6196D41B6
:100A700011E06D084FEA360645EAC0754FEA0752A5
:100A8000001B61EB0201001C41F5801149084FEA8F
:100A900030000019514132462B4603B0BDE8F04FFB
:100AA00000F0E1BA0098012240000023D0EB0202DE
:100AB00063EBE073009821464FEAE074B8EB000066
:100AC00061EB0401E9E783F000435BE781F000415B
:100AD00058E72DE9FE4F81EA030404F0004421F0B9
:100AE000004100944FF0000B23F0004350EA010452
:100AF0005ED052EA03045BD0C3F30A54C1F30A5533
:100B00002C44A4F2F3340194A0FB0254C1F313016A
:100B100041F48011C3F3130343F4801301FB024437
:100B200000FB034E840A970A44EA815447EA83573C
:100B3000A4FB076802958D0A05FB07854FEA932CF5
:100B400004FB0C542705029D4FEA065847EA163766
:100B5000B5EB08056EEB070C870E920E47EA81177E
:100B600042EA8312A7FB0201B6EB0B0164EB00041F
:100B70002B0D43EA0C335E1844EB1C50DA46514609
:100B8000E7FB0201C5F313044FEA0B3343EA1453A6
:100B90004FEA0432019C43EA0603A4F10C040294D8
:100BA000009CCDE900B400F06DFA03B0BDE8F08F11
:100BB00000200146F9E72DE9F04D81EA030404F035
:100BC000004B21F0004514464FF0000A23F000418D
:100BD00050EA050220D054EA01021DD0C5F30A579D
:100BE0000246C5F31303C1F31300C1F30A5640F4E0
:100BF000801543F48013A7EB0608101BD64608F2B5
:100C0000FD3873EB050002D308F1010801E09218EA
:100C10005B41B8F1000F03DA00200146BDE8F08D1A
:100C200000204FF48011064684460EE0171B73EB3C
:100C3000050705D3121B63EB050306434CEA010CC1
:100C400049084FEA300092185B4150EA0107EDD1A4
:100C500052EA030012D082EA040083EA0501084345
:100C600005D0101BAB4106D20122002306E0002272
:100C70004FF0004302E06FF0010253101AEB060040
:100C80004CEB085110EB0A0041EB0B01BDE8F04DB5
:100C900000F0E9B9C10F80EAE0700844CA07962362
:100CA000002100F0B2B90EB5C10F80EAE07008442F
:100CB000CA07002140F233438DE80E000A460B4676
:100CC00000F0E0F903B000BD0EB540F233410291EF
:100CD0000021CDE900110A460B4600F0D3F903B01C
:100CE00000BD00F0004220F00040C10DC0F316002E
:100CF00040F400007F2901DA00207047962903DCC8
:100D0000C1F19601C84001E096398840002AF4D02C
:100D10004042704770B5C1F30A5201F0004500240B
:100D2000C1F3130140F2FF3341F480119A4201DA1A
:100D3000002070BD40F233439A42A2F2334203DCFA
:100D40005242FFF7F1F900E090402C43F1D04042CD
:100D500070BDC1F30A5210B5C1F3130140F2FF3365
:100D600041F480119A4201DA002010BD40F2334371
:100D70009A42A2F2334203DC5242FFF7D5F910BD8A
:100D8000904010BD00F0004230F000400AD0C10D8C
:100D900001F56071C0F3160042EA0151C208400734
:100DA00011437047002001467047000030B5041E13
:100DB00071F1000404DB4FF00044404264EB010198
:100DC000141E73F1000405DB1C464FF00043524231
:100DD00063EB04038B4208BF824230BD30B5041E72
:100DE00071F1000404DB4FF00044404264EB010168
:100DF000141E73F1000405DB1C464FF00043524201
:100E000063EB0403994208BF904230BD30B50B46F6
:100E1000014600202022012409E021FA02F59D422A
:100E200005D303FA02F5491B04FA02F52844151EFE
:100E3000A2F10102F1DC30BD2DE9F05F0546002092
:100E400092469B4688460646814640241BE028463B
:100E5000414647462246FFF767F953465A46C01AAD
:100E6000914110D311461846224600F016F82D1A6B
:100E700067EB01084F4622460120002100F00DF8E3
:100E800017EB00094E41201EA4F10104DFDC4846A7
:100E900031462A464346BDE8F09F202A04DB203A2B
:100EA00000FA02F1002070479140C2F1200320FABD
:100EB00003F3194390407047202A06DBCB17203AF2
:100EC00041FA02F043EAE07306E041FA02F3D0404F
:100ED000C2F120029140084319467047014900F0D1
:100EE00003B800001816002010B500683C22B0FBC3
:100EF000F2F302FB1303B0FBF2F00B60B0FBF2F372
:100F000002FB1303B0FBF2F018224B60B0FBF2F3CC
:100F100002FB1303B0FBF2F0021D8B600723B2FB50
:100F2000F3F403FB1422800040F2B55300F66C305A
:100F30008A61B0FBF3F2B0FBF3F403FB140044321C
:100F400080084A61C8613B2802D3920700D0401C48
:100F50000022074C13460A61E25C824203D8801AE1
:100F60005B1C0B61F8E7401CC860084610BD000020
:100F7000F87800083A2800D2303820F02002412AC0
:100F800001D3A2F13700884201D34FF0FF30704700
:100F9000026811441378016018467047D160044913
:100FA00051610449116200211161114600F010B92C
:100FB000910F0008C5110008426842B1016811F89C
:100FC000013B23B1521EC0E90012184670470121AF
:100FD000C160881E704742685AB1C368016843B94E
:100FE00083688B4205D0491E521CC0E900120020C4
:100FF00070474FF0FF3070470029A8BF7047401C72
:10100000490008BF20F00100704710B4B0FA80FC1E
:1010100000FA0CF050EA010404BF10BC704749B15B
:10102000CCF1200421FA04F411FA0CF118BF0121CB
:1010300021430843A3EB0C01CB1D4FEA00614FEAAB
:10104000102042BF002010BC704700EBC35010447A
:101050000029A4BF10BC7047401C490008BF20F005
:10106000010010BC704710B5141E73F1000408DABB
:10107000401C41F1000192185B411A4301D120F05C
:10108000010010BD2DE9F04D92469B4611B1B1FA19
:1010900081F202E0B0FA80F220329046FFF7FDFEC6
:1010A00004460F4640EA0A0041EA0B0153465A46FD
:1010B000084313D0114653EA010019D0C8F1400289
:1010C0005046FFF731F805460E465046594642460F
:1010D000FFF7E3FE084305D0012004E0204639462F
:1010E000BDE8F08D0020054346EAE0762C43374307
:1010F0000A986305E40AA0EB08000022FD0A44EA0E
:1011000047540A3002D500200146E9E701051019CD
:101110006941DDE9084500196941BDE8F04DA2E7E4
:101120000EB540F2334202920022CDE9002213466E
:10113000FFF7A8FF03B000BDC1F30A52C1F31301CA
:1011400040F2FF3341F480119A4202DA0020014656
:10115000704740F233439A42A2F2334202DC5242D9
:10116000FEF7E2BFFFF799BE01F0004330B421F073
:10117000004150EA010206D00A0DA2F56072C1F3E7
:101180001301002A02DC30BC00207047440F44EAFF
:10119000C104C100E01830BC00EBC250FFF72CBF07
:1011A000064C074D06E0E06840F0010394E80700B4
:1011B00098471034AC42F6D3FEF79CFF90790008B4
:1011C000B0790008C0B24FF4F05100F099B90000B6
:1011D0002DE9F34F8BB04FF0000801F10C000C46E5
:1011E0004FF0010B46460DF1080A0190626901219A
:1011F00001989047051E2DD0252D2CD0216A8847B7
:10120000C0B16269012101989047216A884700288E
:10121000F7D1411E62690198904700E0761CA169F0
:101220000B988847216A88470028F7D1E1690B9815
:101230008847DBE7A1690B9888470746A84201D198
:10124000761CD3E7E1690B9888477F1C02D1B8F17F
:10125000000F6FD047E1002762693D46394601988B
:1012600090472A2804D162690121019890470125FD
:10127000DFF888926269012101989047A0F130015E
:101280000A290AD24F45E5DC07EB870100EB41074D
:10129000303FDFD445F01005ECE7E90601D46FF0EC
:1012A00000476C280AD04C2814D0682815D06A282A
:1012B0000DD074281CD07A281AD01DE06269012153
:1012C000019890476C2802D045F0040514E045F0E1
:1012D00002050DE045F020050AE062690121019850
:1012E0009047682802D045F0080505E045F4006500
:1012F0006269012101989047C4E9015765283DD0F2
:1013000019DC58287AD00CDC452837D004DC252895
:1013100026D0412831D131E046282FD047282CD182
:101320002CE05B2877D0612828D063287CD0642803
:1013300023D15AE0D1E06F2848D008DC66281DD0C0
:1013400067281BD0692821D06E2816D127E0702885
:1013500045D0732868D0752847D078280DD14DE046
:10136000A1690B988847054625283FF469AFE169D4
:101370000B9888476D1C3FF46AAFB4E023466A4679
:101380006FF001000B99FFF74BF99FE045F040002B
:101390006060A80723464FF0000236D43EE0E8071D
:1013A0007FF447AF2068011D21600068290501D541
:1013B00006701BE7290701D5068017E7A90703D5A3
:1013C000F117C0E9006111E706600FE745F0400042
:1013D0006060A80723464FF0080216D41EE040F6CE
:1013E0000E0125EA0100606016E045F040006060F3
:1013F000A80723464FF00A0207D40FE045F040004B
:101400006060A80708D5234610226FF001000B99F1
:10141000AFF300805AE007E0234610226FF001008E
:101420000B99FEF753FF51E04FF000094F464B4632
:10143000632802D05B2807D041E02079C00601D4A0
:101440000120A06001273AE06269012101989047DC
:101450005E2805D14FF0010962694946019890471D
:10146000216939B900210A46534643F82120491C15
:101470000829FADBB0B3216969B9C11700EBD16261
:1014800053110AEB830122F01F02821A01200B681C
:10149000904003430B6062690121019890475D28E9
:1014A000E8D1B9F1000F09D00020514651F82020B1
:1014B000D24341F82020401C0828F7DB02AB22462B
:1014C00000976FF001000B99FEF7A6FF00280CDAD9
:1014D000401C08D1BBF1000F05D04FF0FF300DB01C
:1014E000BDE8F08FFFE74046F9E7E90701D108F1D1
:1014F000010806444FF0000B78E60000CCCCCC0C81
:101500007F2801D9002208E0064A02EB5002C007FA
:10151000127800D1120902F00F0201209040084019
:1015200070470000047900080EB503F01BFE03F0BD
:101530005FFC002202A9184802F004FB9DF8080095
:101540008DF800009DF809008DF801009DF80A0053
:101550000A30C0B28DF80200002269460E4802F03F
:10156000F3FB0E48406800F00200022805D10B484A
:10157000006840F00800094908600848406800F029
:10158000010028B10548006840F0040003490860E4
:1015900001F058FE0EBD00009400002000700040D5
:1015A00010B503F021FD03F05BFC03F0FFFD03F039
:1015B00079FD10BD10B503F035FE03F085FC10BDBC
:1015C0002DE9F04790B0C0E07A497B4803F01AFC5F
:1015D000784800880028F6DD784D0FAA78A12846C3
:1015E000FEF758FE9DF83C0041287DD100200D906B
:1015F0000E900B900C900BAB7649081F021F02ACAB
:101600000BC401920838031F0DAA73A1009028464D
:10161000FEF740FE9DF839109DF838209DF8370000
:101620009DF83630CDE90630CDE908219DF835002A
:101630009DF834109DF82D209DF82C30CDE9023214
:10164000CDE904109DF82F009DF82E10CDE9001073
:101650009DF831309DF8302069A15E48243804F0AF
:10166000DBFD5C492439084600F09CF959492439CE
:101670004869FFF736FB642190FBF1F000FB01FAAB
:101680005046FFF707FB81465248243841694846D7
:10169000FFF737F980466249FFF736F906464D49AC
:1016A00024394869FFF71DFB642190FBF1F840469F
:1016B000FFF7F0FA07463146FFF7CEF845492439DF
:1016C0004861C869FFF70DFB642190FBF1F000FB56
:1016D00001FA5046FFF7DEFA81463E482438C169D8
:1016E0004846FFF70EF900E01CE080464C49FFF742
:1016F0000BF9064637492439C869FFF7F2FA642125
:1017000090FBF1F84046FFF7C5FA07463146FFF770
:10171000A3F830492439C86103F054FC2D49243919
:10172000886213E02F213FA0FEF7A8FD28B12F21EA
:101730003CA0FEF7A3FD401C00E03AA00646522262
:1017400031463DA004F058FD00BF3DE700BF2148F1
:10175000243800F0ADF81F480830FEF77FFD85B251
:101760001C4B08332A4648F221113AA003F01CFE14
:10177000044694B92F212BA0FEF780FD28B12F211C
:1017800028A0FEF77BFD401C00E026A005465F2256
:10179000294634A004F030FD09E00E480830FEF779
:1017A0005DFDC5B229460B48083003F087FC10B038
:1017B000BDE8F0872A000020040D002044790008CD
:1017C00024474E524D432C252A5B5E41565D2563CE
:1017D00000000000FC01002024474E524D432C2500
:1017E0003663252A376325662C25632C25662C2530
:1017F000632C25662C252A662C2536630000000004
:101800003230256325632D256325632D25632563EC
:1018100020256325633A256325633A256325630004
:10182000000070422E2E5C4170705C4170705F4D04
:1018300061696E2E630000005B25733A25645DBB11
:10184000F1C8A1B5BD4750532DCEDED0A7B5C40D0C
:101850000A0000003131322E3132352E38392E381F
:10186000000000005B25733A25645D515331303030
:10187000C9CFB1A84A534F4ECAFDBEDDB3C9B9A600
:101880000D0A000000BFFEE710B50446204600F038
:10189000BBFE10BD10B5044603E04FF47A70FFF7AD
:1018A000F3FF201EA4F101018CB2F6D110BD00009F
:1018B0002DE9F041044605F059FA8046A06AFFF789
:1018C00003FA05462A460B4629A1404605F0E4F9ED
:1018D0006069FFF757FA05462A460B4626A140469F
:1018E00005F0DAF904F1180224A1404605F0F2F9F6
:1018F000E069FFF747FA05462A460B4621A1404614
:1019000005F0CAF904F120021FA1404605F0E2F9F2
:10191000606AFFF737FA05462A460B461CA1404687
:1019200005F0BAF922461CA1404605F0D3F940461D
:1019300005F080FA074604F12C00FEF78FFC0546FF
:10194000294604F12C00FEF76CFC3846FEF786FCB5
:1019500005462A46394604F12C00FEF749FC40466C
:1019600005F02AFA384605F06FFABDE8F08100006C
:10197000737465704E756D006C6174006C617444B5
:10198000697200006C6F6E006C6F6E4469720000CB
:1019900073706565640000006461746554696D6509
:1019A00000000000F0B591B006460D462C2106A8B7
:1019B000FEF737FC06AB07A808A909AACDE9020380
:1019C000CDE900210AAB0BAA13A13046FEF762FC59
:1019D0000B98A0F26C700B900A98401E0A9006A813
:1019E000FEF7B2FB074607F5E140059005A8FFF7B3
:1019F00075FA044694E80B00E268CDE90023CDE9CE
:101A000002102069431C606900F26C7207A128462D
:101A100004F002FC11B0F0BD25642D25642D256471
:101A20002025643A25643A2564000000253034649A
:101A30002D253032642D2530326420253032643A31
:101A4000253032643A25303264000000704701B519
:101A500001226946892000F0CAFB08BD38B504465A
:101A60001B48844206D9E1208DF80000E9208DF85A
:101A7000010026E01748844206D9D7208DF80000DF
:101A8000D8208DF801001CE01348844206D9C120FB
:101A90008DF80000C5208DF8010012E00F48844247
:101AA00006D975208DF8000081208DF8010008E02E
:101AB0000B48844205D96B208DF800006F208DF80B
:101AC000010002226946982000F091FB38BD000019
:101AD00000E9A43580F8A9328044E52D000B6B1B8A
:101AE00040FC541910B500F055F818B100F052F848
:101AF000062801D100F04BFB00F042FB10BD38B5C9
:101B00000446200A8DF80000E0B28DF801000222A0
:101B10006946104600F06BFB38BD1020704708B5D1
:101B200002226946122000F006F99DF801009DF896
:101B3000001040EA012008BD38B50446032269467A
:101B4000142000F0F8F89DF800004042C0F347016F
:101B500021739DF80100802804DA9DF801008110AE
:101B6000617306E09DF80100A0F58070C0F3870165
:101B700061739DF802004042C0F34701A17302481F
:101B80000168216138BD0000300000200048704726
:101B90000004200201480078704700002C0000205B
:101BA000F8B505460C4616460020009069462046CA
:101BB00000F00DF82078B04201DD0120F8BD227858
:101BC00029469DF8000000F092F80020F6E738B5AD
:101BD00004460D4602226946132000F0ACF840F29C
:101BE000047000F0C9F80121B1EBE01F05D140F20B
:101BF000027000F0C1F8207002E09DF80000207033
:101C00009DF80100287038BD2DE9F04100F0E5F89D
:101C100000F0BDFA01201C49087000F04BFA1C21AD
:101C200040F6111000F002FB1C2140F6121000F0EB
:101C3000FDFA012000F020F9012000F0B4F90021A4
:101C4000084600F00CF9012000F096F90F4884795D
:101C5000C579067A32462146284600F063F945F2F6
:101C60004B7000F052F9FF2000F032F9084F38466F
:101C700000F0A0F90721162000F060FA002000F023
:101C8000D3F9BDE8F08100002C0000202478000882
:101C900088F6D01938B5FFF742FF044600200090BF
:101CA000F4B12046FFF72BFF04F00200022811D107
:101CB0000C48FFF741FFFF2269460B48FFF770FF12
:101CC0009DF800200849204600F0EEFA002000F0C0
:101CD000ABF905E09DF800200349204600F0E4FA46
:101CE00038BD0000041500201815002070472DE9AC
:101CF000F04107460D461646FFF7F4FE002000F0BF
:101D000065FB1E2000F074FB384600F071FB0020DC
:101D100000F06EFB002405E0002000F069FB285570
:101D2000601C84B2B442F7DB012000F04FFB00F0EE
:101D300027FABDE8F0812DE9F04107460D46164629
:101D4000FFF7D0FE002000F041FB384600F050FBCA
:101D5000002000F04DFB002405E0002000F048FBCF
:101D60002855601C84B2B442F7DB012000F02EFB42
:101D700000F006FABDE8F08138B504460122694654
:101D8000204600F003F89DF8000038BD2DE9F04131
:101D900004460E461746FFF7A5FE002000F016FB8E
:101DA0001D2000F025FB200A00F022FBE0B200F02D
:101DB0001FFB002000F01CFB002505E0002000F0C8
:101DC00017FB7055681C85B2BD42F7DB012000F09F
:101DD000FDFA00F0D5F9BDE8F08110B50A2000F059
:101DE0005DFA002000F0CCFA142000F057FA012030
:101DF00000F0C6FA142000F051FA10BD10B5002012
:101E000000F06AFB012000F0CDFA10BD10B50020F3
:101E100000F0C8FA012000F05FFB10BD2DE9F04191
:101E200007460C461546204600F052F82146384633
:101E300000F0B0F8284600F051F9002600BF01205C
:101E400000F02CFAFFF76BFE0646002EF7D0304666
:101E5000FFF755FE304600F0DDFABDE8F08138B5F9
:101E600005460C468DF800508DF801400222694667
:101E70008F2000F0BCF938BD01B5012269469D20D4
:101E800000F0B5F908BD2DE9FC4107460C461546A2
:101E90001E46380A8DF80000F8B28DF80100200ABD
:101EA0008DF80200E0B28DF80300280A8DF80400D6
:101EB000E8B28DF80500300A8DF80600F0B28DF812
:101EC000070008226946104600F091F9BDE8FC8140
:101ED0003EB5054600200090019002903C24200A67
:101EE0008DF800008DF8014000208DF802008DF87B
:101EF000035001208DF8040000208DF80500062213
:101F000069468C2000F073F93EBD10B50446210AE5
:101F10004FF4E86000F08AF9E1B240F2417000F05D
:101F200085F910BD7CB506460C461546002000908C
:101F300001908DF800608DF801408DF8025001206D
:101F40008DF80300042269468B2000F050F97CBD17
:101F5000F8B504460D4616461F468DF800408DF82C
:101F600001508DF802608DF80370042269469520B7
:101F700000F03DF9F8BD000001B59DF800000449EE
:101F80000870012269468A2000F031F908BD00007E
:101F90002D00002070B504460D462A46214600203B
:101FA00000F005F970BD01B501226946962000F0E8
:101FB0001EF908BD2DE9FC4781460024FF20009052
:101FC0000098FFF744FD4846FFF748FD012000F068
:101FD00071F81C2140F6111000F028F91C2140F680
:101FE000121000F023F94846FEF76EFE0746002265
:101FF0000C4BFEF7E0FD0546FEF7ABFE0446200E57
:102000008DF80400200C8DF80500200A8DF80600DC
:10201000E0B28DF80700042201A9862000F0E7F85D
:10202000BDE8FC878084EE3F38B50446052017499B
:102030000870012000F03EF81C2140F6111000F05D
:10204000F5F81C2140F6121000F0F0F800231A46B3
:1020500040F202210846FFF716FFFF20FFF738FF86
:102060004FF6FF70FFF74BFDFFF7C8FE200C8DF811
:102070000000200A8DF80100E0B28DF80200032272
:102080006946822000F0B3F838BD00002C00002023
:1020900001B5002000F020FA002000F083F90122B1
:1020A0006946842000F0A3F800200149087008BDAB
:1020B0002C00002001B501226946802000F097F82D
:1020C0009DF8000018B901200349087002E00220C1
:1020D0000149087008BD00002C00002038B50446F6
:1020E000042015490870FFF791FE0120FFF7E2FF79
:1020F0001C2140F6111000F099F81C2140F6121036
:1021000000F094F800231A4640F201210846FFF738
:10211000BAFE4FF6FF70FFF7F2FC200C8DF80000BE
:10212000200A8DF80100E0B28DF802000322694612
:10213000832000F05CF838BD2C00002038B5044640
:102140000D460123002207210420FFF701FF162C72
:1021500001DD162404E014F1030F01DA6FF002042C
:10216000382140F6E70000F061F8E0B28DF8000099
:102170008DF80150022269468E2000F038F838BDF3
:1021800010B500BF00F07EF80028FBD110BD10B5DF
:10219000002000F01BF9C02000F02AF9002000F018
:1021A00027F9012000F012F9FFF7EAFF10BD2DE931
:1021B000F04107460D461646FFF794FC002000F05C
:1021C00005F90E2000F014F9384600F011F900244A
:1021D00004E0285D00F00CF9601C84B2B442F8DB26
:1021E000012000F0F3F8FFF7CBFFBDE8F0812DE907
:1021F000F04105460E461746FFF774FC002000F03C
:10220000E5F8284600F0F4F8002404E0305D00F022
:10221000EFF8601C84B2BC42F8DB012000F0D6F875
:10222000842D01D0FFF7ACFFBDE8F08113B5044663
:10223000012201A9204600F001F81CBD2DE9F04162
:1022400004460E461746FFF74DFC002000F0BEF88E
:102250000D2000F0CDF8200A00F0CAF8E0B200F03E
:10226000C7F8002504E0705D00F0C2F8681C85B274
:10227000BD42F8DB012000F0A9F8FFF781FFBDE8BF
:10228000F081000010B500240221034800F060FB3B
:102290000446204610BD0000000C014010B5044665
:1022A000204600F0B1F910BD2DE9F04104460D467D
:1022B000174604F00200002813D02F2116A0FDF7C6
:1022C000DDFF28B12F2114A0FDF7D8FF401C00E04E
:1022D00011A006462B465F22314619A003F08CFF61
:1022E00018E004F40070002812D02F210AA0FDF796
:1022F000C5FF28B12F2108A0FDF7C0FF401C00E05A
:1023000005A006466522314616A003F075FF01E0E0
:1023100000BFFEE7BDE8F0812E2E5C496E745C6C58
:102320006F72615C45323230784D785C65627974E9
:10233000655F63616C6C6261636B2E63000000001B
:102340005B25733A25645D6C6F7261BDD3CAD5B5E8
:10235000BDCAFDBEDDB5C4CAB1BAF2D6B4D0D0256F
:10236000730D0A005B25733A25645D6C6F7261BD65
:10237000D3CADCCAFDBEDDB3ACCAB10D0A00000091
:1023800010B50446012C05D101221146044800F085
:10239000E7FA04E000220121014800F0E1FA10BD53
:1023A000000C014010B50446012C05D101220103A7
:1023B000054800F0D5FA05E000224FF480510248AC
:1023C00000F0CEFA10BD0000000C014010B504462C
:1023D000012C05D101221021044800F0C1FA04E0CB
:1023E00000221021014800F0BBFA10BD0008014096
:1023F00001B582B0002001904FF47A70012301AA48
:1024000002A90090024801F0CBFD9DF804000EBD2A
:10241000A800002070B5044604F00100002812D086
:102420002F2116A0FDF72AFF28B12F2113A0FDF7B9
:1024300025FF401C00E011A005463522294619A0C1
:1024400003F0DAFE18E004F40070002812D02F2107
:102450000AA0FDF713FF28B12F2108A0FDF70EFFFA
:10246000401C00E005A005463B22294614A003F0CD
:10247000C3FE01E000BFFEE770BD00002E2E5C49E8
:102480006E745C6C6F72615C45323230784D785C92
:1024900065627974655F63616C6C6261636B2E6306
:1024A000000000005B25733A25645D6C6F7261B7B4
:1024B000A2CBCDCAFDBEDDB3C9B9A60D0A0000008E
:1024C0005B25733A25645D6C6F7261B7A2CBCDB3A7
:1024D000ACCAB10D0A00000010B50446012C05D1AC
:1024E00001220421044800F03BFA04E00022042108
:1024F000014800F035FA10BD000C014072B600BF73
:10250000FEE70146002291F82100022808D00420AD
:10251000886300BF002081F8200000BF01207047C1
:102520000868006820F00E000B68186008680068F2
:1025300020F001000B68186091F8403001209840AD
:10254000CB6B5860012081F8210000BF002081F88A
:10255000200000BF1046E2E770B50446002594F85D
:102560002100022803D00420A063012548E0206850
:10257000006820F00E00216808602068006820F0E4
:102580000100216808601F492068884201D10120AC
:1025900026E01C4914312068884201D110201FE038
:1025A000184928312068884201D1801518E0154962
:1025B0003C312068884201D1801411E0114950312A
:1025C0002068884202D14FF4803009E00D4964311F
:1025D0002068884202D14FF4801001E04FF08070F3
:1025E000084908394860012084F8210000BF002014
:1025F00084F8200000BF606B10B12046616B8847F3
:10260000284670BD0800024070B5044600F0AEF9DF
:1026100006462546681C10B104480078054400BFF2
:1026200000F0A4F9801BA842FAD370BD0800002076
:102630002DE9F8470346002294466EE14FF0010869
:1026400008FA02F4D1F8008008EA0400A0427DD123
:10265000DFF8DCA2D1F80480A8EB0A09D0453AD013
:1026600014DCB8F1030F50D009DCB8F1000F31D001
:10267000B8F1010F1CD0B8F1020F49D120E0B8F138
:10268000110F18D0B8F1120F42D11EE0B9F5881F12
:1026900025D006DCB9F5803F20D0B9F5801F37D1B1
:1026A0001AE0B9F5001F18D0B9F5041F30D117E0B2
:1026B000D1F80CC02DE0D1F80C8008F1040C28E012
:1026C000D1F80C8008F1080C23E0D1F80C8008F157
:1026D0000C0C1EE000BF00BF00BF00BF00BF00BF6A
:1026E000D1F80880B8F1000F02D14FF0040C0BE0D4
:1026F000D1F80880B8F1010F03D14FF0080C1C612C
:1027000002E04FF0080C5C6103E04FF0000C00E0C9
:1027100000BF00BFFF2801D8984601E003F104087C
:102720004646FF2802D84FEA820803E0A2F10808D3
:102730004FEA88084746D6F800804FF00F0909FA9B
:1027400007F928EA09080CFA07F900E088E048EAE6
:102750000908C6F80080D1F8048008F08058B8F164
:10276000805F7DD100BFDFF8CC81D8F8188048F0B9
:102770000108DFF8C091C9F81880C846D8F8188059
:1027800008F00108CDF8008000BF00BF4FEAB9385B
:102790004FEA920958F829504FEA82784FEA18799F
:1027A0004FF00F0808FA09F825EA0805DFF88881D4
:1027B000434502D14FF0000816E0DFF88081434521
:1027C00002D14FF001080FE0DFF87481434502D1D8
:1027D0004FF0020808E0DFF86C81434502D14FF06A
:1027E000030801E04FF004084FEA82794FEA1979B3
:1027F00008FA09F848EA0505DFF84C814FEA920922
:1028000048F82950D1F8048008F48018B8F5801FE2
:102810000AD1DFF83881D8F8008048EA0008DFF8EC
:102820002C91C9F8008009E0DFF82081D8F80080F9
:1028300028EA0008DFF81491C9F80080D1F8048074
:1028400008F40018B8F5001F10D1DFF8008108F176
:102850000408D8F8008048EA0008DFF8F09000E0AB
:102860005AE009F10409C9F800800DE0DFF8DC80C6
:1028700008F10408D8F8008028EA0008DFF8CC90B6
:1028800009F10409C9F80080D1F8048008F400387F
:10289000B8F5003F0ED1DFF8B480A8F10408D8F8ED
:1028A000008048EA0008DFF8A490A9F10409C9F8FB
:1028B00000800DE0DFF89480A8F10408D8F80080CB
:1028C00028EA0008DFF88490A9F10409C9F800801B
:1028D000D1F8048008F48038B8F5803F0ED1DFF8D5
:1028E0006C80A8F10808D8F8008048EA0008DFF8F2
:1028F0005C90A9F10809C9F800800DE0DFF84C8070
:10290000A8F10808D8F8008028EA0008DFF83C9011
:10291000A9F10809C9F80080521CD1F8008028FAF2
:1029200002F8B8F1000F7FF489AEBDE8F887000027
:10293000000011100010024000080140000C01408E
:10294000001001400014014008000140080401404B
:10295000024693680B400BB1012000E00020704755
:102960000AB1016101E00B0403617047014800688E
:10297000704700000000002070B504460CB901202B
:1029800070BD94F83D0028B9002084F83C00204632
:1029900000F046FB242084F83D002068006820F009
:1029A0000100216808602068006840F40040216848
:1029B00008602068006820F400402168086000F08A
:1029C00037FE05465C496068884206D85B48854208
:1029D00001D2012007E0002005E05948854201D2DC
:1029E000012000E00020012800D1C9E75548B5FBCF
:1029F000F0F62068406820F03F00304321684860CE
:102A00004D496068884201D8701C07E04FF4967009
:102A100070434FF47A71B0FBF1F0401C2168096AF1
:102A200021F03F01084321680862434960688842F9
:102A300014D8681E61684900B0FBF1F0401CC0F377
:102A40000B00042801D204203DE0681E61684900A3
:102A5000B0FBF1F0401CC0F30B0034E0A06838B9C3
:102A6000681E616801EB4101B0FBF1F0401C0AE017
:102A7000681E616801EBC10202EB0111B0FBF1F0CD
:102A8000401C40F48040C0F30B0008B901201AE05C
:102A9000A06848B9681E616801EB4101B0FBF1F024
:102AA000401CC0F30B000CE0681E616801EBC10222
:102AB00002EB0111B0FBF1F0401CC0F30B0040F43D
:102AC000804040F400402168C9694CF6FF72914390
:102AD00008432168C861D4E90701084321680968EF
:102AE00021F0C001084321680860D4E903100843BD
:102AF0002168896848F2FF32914308432168886061
:102B0000D4E9050108432168C96821F0FF010843A1
:102B10002168C8602068006840F0010021680860F2
:102B200000202064202084F83D000020206384F8E9
:102B30003E0000BF24E70000A086010080841E0044
:102B400000093D0040420F002DE9FE4F04460F46AC
:102B500090469946DDE90CAB0E9E00200290FFF7EF
:102B600005FF054694F83D00202872D11923012263
:102B7000CE492046009501F0E6FF10B10220BDE8E5
:102B8000FE8F00BF94F83C00012801D10220F6E737
:102B9000012084F83C0000BF2068006800F00100BC
:102BA00028B92068006840F00100216808602068AA
:102BB000006820F4006021680860222084F83D004D
:102BC000402084F83E0000202064C4F824A0A4F82B
:102BD0002AB0608D2085B648E0624B4642463946B1
:102BE0002046CDE9006501F05BFE08B10120C6E793
:102BF000208D88B900BF00200190206840690190B5
:102C000020688069019000BF00BF2068006840F420
:102C10000070216808604BE0208D01281AD12068DF
:102C2000006820F480602168086072B600BF002050
:102C3000019020684069019020688069019000BF80
:102C400000BF2068006840F400702168086062B628
:102C50002EE029E1208D022819D12068006840F477
:102C600000602168086072B600BF002001902068F3
:102C70004069019020688069019000BF00BF206812
:102C8000006820F480602168086062B610E0206867
:102C9000006840F480602168086000BF0020019057
:102CA00020684069019020688069019000BF00BFE2
:102CB000EBE0208D03287DD8208D012815D12A46F0
:102CC0003146204602F01BF808B1012057E7206882
:102CD0000069616A0870606A401C6062208D401E55
:102CE0002085608D401E6085CFE0208D02282CD18C
:102CF000334600226F492046009501F024FF08B1B9
:102D000001203CE772B62068006840F4007021683A
:102D1000086020680069616A0870606A401C60622F
:102D2000208D401E2085608D401E608562B6206823
:102D30000069616A0870606A401C6062208D401EF4
:102D40002085608D401E60859FE0334600225949F2
:102D50002046009501F0F7FE08B101200FE720683A
:102D6000006820F480602168086072B620680069FD
:102D7000616A0870606A401C6062208D401E208578
:102D8000608D401E60854C4800681921B0FBF1F051
:102D90004FF47A71B0FBF1F0C0EBC00000EB8000A3
:102DA000029000BF0298401E02900298A8B900202D
:102DB000206300E039E0202084F83D00002084F802
:102DC0003E00206C40F02000206462B600BF00206E
:102DD00084F83C0000BF0120D1E620684069C0F3C0
:102DE00080000028DED02068006840F40070216870
:102DF000086020680069616A0870606A401C60624F
:102E0000208D401E2085608D401E608562B6206842
:102E10000069616A0870606A401C6062208D401E13
:102E20002085608D401E60852FE02A463146204671
:102E300001F065FF08B10120A1E620680069616A20
:102E40000870606A401C6062208D401E2085608D85
:102E5000401E608520684069C0F38000A8B1208DC5
:102E6000032805D12068006820F48060216808608C
:102E700020680069616A0870606A401C6062208D89
:102E8000401E2085608D401E6085208D00287FF4C7
:102E900010AF202084F83D00002084F83E0000BFE1
:102EA00084F83C0000BF6AE6022068E602001000D9
:102EB0000000FFFF040001000C0000202DE9FC5F72
:102EC00004460F4690469946DDE90CAB0E9EFFF78F
:102ED0004DFD054694F83D0020287DD1192301229F
:102EE0004D492046009501F02EFE10B10220BDE8AC
:102EF000FC9F00BF94F83C00012801D10220F6E7B6
:102F0000012084F83C0000BF2068006800F0010048
:102F100028B92068006840F0010021680860206836
:102F2000006820F4006021680860212084F83D00DA
:102F3000402084F83E0000202064C4F824A0A4F8B7
:102F40002AB0608D20853548E0624B4642463946BE
:102F50002046CDE9006501F053FD08B10120C6E728
:102F600031E02A463146204601F00EFF50B1206C78
:102F7000042805D12068006840F4007021680860CA
:102F80000120B4E7606A007821680861606A401C2B
:102F90006062208D401E2085608D401E6085206807
:102FA0004069C0F3800070B1208D60B1606A007824
:102FB00021680861606A401C6062208D401E208587
:102FC000608D401E6085208D0028CAD12A4631467A
:102FD000204601F085FD00E01CE050B1206C042883
:102FE00005D12068006840F4007021680860012065
:102FF0007DE72068006840F40070216808602020A8
:1030000084F83D00002084F83E0000BF84F83C00B6
:1030100000BF6CE702206AE7020010000000FFFF1B
:1030200010B586B0044600200290039004900590ED
:1030300015492068884225D100BF1448806940F0B6
:103040000800124988610846806900F00800019074
:1030500000BF00BFC0200290122003900320059003
:1030600002A90B48FFF7E4FA00BF0848C06940F422
:1030700000100649C8610846C06900F400100190BC
:1030800000BF00BF06B010BD005400400010024059
:10309000000C0140034800680349097808440149CD
:1030A00008607047000000200800002010B50848A4
:1030B000006840F0100006490860032000F0A8F8FE
:1030C0000F2000F007F800F02BF8002010BD0000E2
:1030D0000020024070B504460E4800784FF47A7123
:1030E000B1FBF0F00C490968B1FBF0F5284601F09E
:1030F0007BF808B1012070BD102C07D200222146B8
:10310000501E00F047F80548046001E00120F2E796
:103110000020F0E7080000200C0000200400002040
:1031200008B500BF1148806940F001000F4988616F
:103130000846806900F00100009000BF00BF00BF9A
:103140000846C06940F08050C8610846C06900F078
:103150008050009000BF00BF00BF0549486820F0C4
:10316000E06040F00070486000BF08BD0010024001
:103170000000014001460846002809DB00F01F035B
:1031800001229A4043099B0003F1E023C3F8002188
:1031900000BF70472DE9F05F80460D4616460027B8
:1031A00003F04EF8074639462A46334601F0070039
:1031B000C0F1070ABAF1040F02D94FF0040A01E086
:1031C000C0F1070AD14600F1040ABAF1070F02D292
:1031D0004FF0000A01E0A0F1030AD4464FF0010AC3
:1031E0000AFA09FAAAF1010A0AEA020A0AFA0CFA28
:1031F0004FF0010B0BFA0CFBABF1010B0BEA030BCD
:103200004AEA0B042146404603F022F8BDE8F09F4D
:1032100000BF00F00702064B19684FF6FF03194084
:10322000044B0B4343EA0221014B196000BF704776
:103230000CED00E00000FA0501200149086270472A
:1032400000000E420748006840F00200054908608F
:103250000548006840F004000349086000BF00BF53
:1032600030BF70470070004010ED00E02DE9F047DE
:1032700006464FF00008002500270024A146012E35
:1032800031D0022E56D0102E5FD1324844680068EB
:1032900000F0807008B33048C4F38341475C04F405
:1032A000803078B12B484068C0F340402B4911F87A
:1032B000008004F4803040B12948B0FBF8F000FBF6
:1032C00007F502E0274807FB00F52248406800F4B4
:1032D0008000B0F5800F01D1A94603E0680003210A
:1032E000B0FBF1F932E01B48046A04F44070B0F519
:1032F000807F05D104F0020010B14FF4004918E0BE
:1033000004F44070B0F5007F07D11248406A00F025
:10331000020010B149F640490BE004F44070B0F5EA
:10332000407F06D10B48006800F4003008B14FF22E
:1033300024490BE000F08CF906494968C1F381315A
:10334000491C4900B0FBF1F900E000BF00BF48464E
:10335000BDE8F08700100240D8770008E877000841
:1033600000127A0000093D00F8B504460026002549
:10337000207800F0010000286BD000274348C06986
:1033800000F0805070B900BF4048C06940F08050E4
:103390003E49C8610846C06900F08050009000BFF7
:1033A00000BF01273A48006800F48070B0B938487F
:1033B000006840F4807036490860FFF7D7FA064687
:1033C00006E0FFF7D3FA801B642801D90320F8BD7B
:1033D0002F48006800F480700028F2D02B48006A63
:1033E00000F440752DB3A08800F44070A84220D0AE
:1033F0002648006A20F44075012026490860002014
:1034000008602248056205F0010090B1FFF7AEFAAE
:10341000064608E0FFF7AAFA801B41F2883188428D
:1034200001D90320D3E71948006A00F00200002800
:10343000F0D01648006A20F44070616808431349D0
:103440000862012F04D10846C06920F08050C8618D
:1034500000BF207800F00200022807D10B48406826
:1034600020F44040A168084308494860207800F0F3
:103470001000102807D10548406820F48000E1685A
:103480000843024948600020A1E700000010024004
:10349000007000404004424270B504460D460CB92D
:1034A000012070BD5A48006800F00700A8420ED203
:1034B0005748006820F0070028435549086008462F
:1034C000006800F00700A84201D00120E9E7207859
:1034D00000F0020002281DD1207800F0040004282A
:1034E00005D14C48406840F4E0604A494860207883
:1034F00000F00800082805D14648406840F46050B4
:10350000444948604348406820F0F000A1680843FF
:1035100040494860207800F0010078B360680128D5
:1035200006D13C48006800F4003090B90120B8E7AB
:103530006068022806D13748006800F0007040B982
:103540000120AEE73348006800F0020008B901200E
:10355000A7E73048406820F00300616808432D4920
:103560004860FFF703FA064609E0FFF7FFF9801B02
:1035700041F28831884202D9032092E707E02548CA
:10358000406800F00C006168B0EB810FEDD120487D
:10359000006800F00700A8420ED91D48006820F01E
:1035A000070028431A4908600846006800F0070031
:1035B000A84201D0012074E7207800F0040004281C
:1035C00007D11448406820F4E060E16808431149DD
:1035D0004860207800F00800082808D10D484068AD
:1035E00020F46050216940EAC1000A49486000F0B7
:1035F0003FF808494968C1F30311074A515CC840C4
:103600000649086006480068FFF764FD002048E7A7
:103610000020024000100240EA7700080C00002061
:103620000400002001480068704700000C000020E2
:1036300000B5FFF7F7FF04494968C1F30221034AC7
:10364000515CC84000BD000000100240FA7700083D
:1036500000B5FFF7E7FF04494968C1F3C221034AF7
:10366000515CC84000BD000000100240FA7700081D
:1036700070B500210022002400230020134D69684A
:1036800001F00C05F5B1042D02D0082D19D101E08F
:103690000F4819E00F4DC1F38346AB5D01F480354F
:1036A00055B10A4D6D68C5F340450B4E725D084D2E
:1036B0005D43B5FBF2F402E0084D03FB05F4204640
:1036C00002E000BF024800BF00BF70BD0010024012
:1036D00000127A00C6770008D677000800093D007E
:1036E000F8B504460CB90120F8BD207800F00100BF
:1036F000002878D0F848406800F00C0004280CD06E
:10370000F548406800F00C00082811D1F2484068E4
:1037100000F48030B0F5803F0AD1EF48006800F433
:10372000003000285FD0606800285CD10120DBE712
:1037300000BF6068B0F5803F06D1E748006840F4FC
:103740008030E549086028E0606858B9E2480068C0
:1037500020F48030E04908600846006820F48020AA
:1037600008601AE06068B0F5A02F0BD1DA48006855
:1037700040F48020D84908600846006840F4803052
:1037800008600AE0D448006820F48030D24908601C
:103790000846006820F48020086000BF606888B197
:1037A000FFF7E4F8054606E0FFF7E0F8401B642861
:1037B00001D9032098E7C848006800F400300028C9
:1037C000F2D010E0FFF7D2F8054606E0FFF7CEF89A
:1037D000401B642801D9032086E7BF48006800F435
:1037E00000300028F2D1207800F00200022857D1E2
:1037F000B948406800F00C0050B1B748406800F08C
:103800000C00082818D1B448406800F4803098B9FA
:10381000B148006800F0020020B12069012801D001
:10382000012061E7AC48006820F0F800616940EAD7
:10383000C100A949086033E02069E8B10120A74927
:103840000860FFF793F8054606E0FFF78FF8401B86
:10385000022801D9032047E79F48006800F00200D2
:103860000028F2D09C48006820F0F800616940EA26
:10387000C1009949086013E0002098490860FFF7EB
:1038800075F8054606E0FFF771F8401B022801D9DC
:10389000032029E79048006800F002000028F2D1D8
:1038A000207800F0080008282DD1A069B8B10120C7
:1038B0008B490860FFF75AF8054606E0FFF756F80F
:1038C000401B022801D903200EE78348406A00F01C
:1038D00002000028F2D0012002F052F813E000208C
:1038E0007F490860FFF742F8054606E0FFF73EF81B
:1038F000401B022801D90320F6E67748406A00F011
:1039000002000028F2D1207800F00400042873D1CE
:1039100000277148C06900F0805070B900BF6E4840
:10392000C06940F080506C49C8610846C06900F029
:103930008050009000BF00BF01276A48006800F473
:103940008070B0B96748006840F4807065490860CD
:10395000FFF70CF8054606E0FFF708F8401B64285F
:1039600001D90320C0E65F48006800F48070002899
:10397000F2D000BFE068012806D15748006A40F045
:1039800001005549086227E0E06858B95248006ACA
:1039900020F00100504908620846006A20F0040047
:1039A000086219E0E06805280BD14B48006A40F036
:1039B0000400494908620846006A40F001000862B4
:1039C0000AE04548006A20F00100434908620846C1
:1039D000006A20F00400086200BFE068A0B1FEF7B2
:1039E000C5FF054609E0FEF7C1FF401B41F28831E3
:1039F000884202D9032077E622E03748006A00F0C7
:103A000002000028EFD012E0FEF7B0FF054608E004
:103A1000FEF7ACFF401B41F28831884201D90320F8
:103A200062E62D48006A00F002000028F0D1012F64
:103A300005D12948C06920F080502749C86100BFDE
:103A4000E069C8B32448406800F00C00082860D042
:103A5000E069022848D1002020490866FEF786FF69
:103A6000054606E0FEF782FF401B022801D903202D
:103A70003AE61948006800F000700028F2D1206A88
:103A8000B0F5803F07D11448406820F40030A168A9
:103A9000084311494860D4E9080108430E494968C0
:103AA00021F4741108430C49486001200B49086651
:103AB000FEF75CFF054607E03DE0FEF757FF401BC1
:103AC000022801D903200FE60348006800F00070C7
:103AD0000028F2D02FE00000001002400000424217
:103AE0008004424200700040002014490866FEF73E
:103AF0003DFF054606E0FEF739FF401B022801D9CD
:103B00000320F1E50E48006800F000700028F2D1B3
:103B100011E0E069012800D1E6E50948466806F4AD
:103B20008031206A814204D106F47011606A8142BA
:103B300001D00120D8E50020D6E500000000424277
:103B4000001002402DE9F04780460C4691460025C2
:103B50000026AA460027B8F1000F00D014B90120B2
:103B6000BDE8F087D8F800004068C0F3800008B1D5
:103B70000120F5E7404601F0E9FF05464FF461609A
:103B8000B5FBF0F7B5FBF0F100FB11503C21B0FBA9
:103B9000F1F060704FF46160B5FBF0F100FB115083
:103BA0003C21B0FBF1F201FB1200A070182F39D3B9
:103BB0001820B7FBF0FAB7FBF0F100FB1170207092
:103BC000404601F0B7FF0646701C18B1AE4201D95D
:103BD000761B01E04FF0FF360AEB4A00C000C0EB55
:103BE0004011C1EB0020A5EB00152946404602F02C
:103BF00020F808B10120B3E7701C38B12E443146DB
:103C0000404601F0FFFF40B10120A9E731464046A0
:103C100001F0F8FF08B10120A2E75146404601F04B
:103C2000DBFE00E02770B9F1000F0BD0207801F027
:103C3000C6FE2070607801F0C2FE6070A07801F0CE
:103C4000BEFEA07000208BE770B5044600250CB9BD
:103C5000012070BD607C20B900202074204600F057
:103C600053F802206074204600F0D8F818B1042000
:103C700060740120EDE7204601F009FF18B104202F
:103C800060740120E5E72068406820F007002168A3
:103C90004860A06828B11B48006820F0010019495D
:103CA00008601848001F006820F46070A16808438D
:103CB0001449091F08606068401C08B1656809E084
:103CC0000120FFF7D3FA05461DB9042060740120D6
:103CD000BFE76D1EC5F3034021688860A8B2216864
:103CE000C860204601F0F0FE18B104206074012085
:103CF000AFE70021E17301216173A17301206074BA
:103D00000020A6E7306C004038B504460B49206817
:103D1000884212D1FFF790FA00BF0948C06940F00D
:103D200000600749C8610846C06900F00060009063
:103D300000BF00BF01200349086038BD00280040D3
:103D4000001002403C0442422DE9F84304460D466F
:103D5000174600260020009004B115B90120BDE8E7
:103D6000F88300BF207C012801D10220F7E7012061
:103D7000207400BF02206074002269462046FFF7CD
:103D8000E1FE08B10120EAE79DF800004FF461610F
:103D900048439DF80110C1EB011100EB81009DF833
:103DA000021000EB01085FB928784FF461614843C5
:103DB0006978C1EB011100EB8100A978461812E087
:103DC000287801F0F1FD4FF4616100FB01F968789A
:103DD00001F0EAFDC0EB001009EB8009A87801F0C2
:103DE000E3FD09EB0006464501D20B480644314687
:103DF000204601F007FF38B10420607400BF0020A6
:103E0000207400BF0120AAE70120607400BF0020D9
:103E1000207400BF00BFA2E78051010070B50446C6
:103E200000250CB9012070BD2068406820F0080012
:103E300021684860FEF79AFD054607E0FEF796FD0B
:103E4000401BB0F57A7F01D90320ECE72068406879
:103E500000F008000028F1D00020E4E710B5044687
:103E60000CB9012010BD606A38B96068B0F5827F76
:103E700000D105E00021E16102E0002121616161E2
:103E80000021A16294F8510028B9002084F8500064
:103E9000204600F043F8022084F8510020680068B2
:103EA00020F0400021680860A08800F48270218919
:103EB00001F404410843A18901F400610843217C15
:103EC00001F002010843217D01F001010843218B2B
:103ED00001F400710843217F01F0380108432021DB
:103EE000095D01F080010843218D01F40051084370
:103EF000216808600421A06901EA10402168486037
:103F00002068C06920F400602168C86100206065F5
:103F1000012084F851000020A4E7000010B586B00D
:103F200004460020029003900490059019492068EF
:103F300088422DD100BF1848806940F4805016494E
:103F400088610846806900F48050019000BF00BF7E
:103F500000BF0846806940F0040088610846806917
:103F600000F00400019000BF00BFA02002900220DA
:103F700003900320059002A90848FEF759FB402052
:103F8000029000200390049002A90448FEF750FB21
:103F900006B010BD00300140001002400008014092
:103FA0002DE9FE4F04460F4690461D460C9E01200B
:103FB0000190FEF7DBFC814694F851B060680290F6
:103FC000AA46BBF1010F0BD00298B0F5827F04D155
:103FD000A06810B9BBF1040F02D00220BDE8FE8F2B
:103FE0001FB1B8F1000F00D00DB90120F6E700BFF6
:103FF00094F85000012801D10220EFE7012084F855
:10400000500000BF94F85100042802D0052084F825
:10401000510000206065C4F83880E587A5872763D4
:10402000E586A586206460642068006800F0400092
:10403000402805D02068006840F0400021680860F2
:10404000E068B0F5006F52D1606810B1BAF1010FAD
:1040500009D1206B00882168C860206B801C206318
:10406000E08E401EE0863BE02068806800F00200A1
:10407000022810D1E08E70B1019801280BD1206B7D
:1040800000882168C860206B801C2063E08E401E81
:10409000E086002001902068806800F0010068B18F
:1040A000E08F58B12068C068A16B0880A06B801CAD
:1040B000A063E08F401EE08701200190FEF756FCD0
:1040C000A0EB0900B0420BD3701C48B1012084F86A
:1040D000510000BF002084F8500000BF03207DE79E
:1040E000E08E0028C0D1E08F0028BDD152E060688A
:1040F00010B1BAF1010F09D1206B00782168087363
:10410000206B401C2063E08E401EE0863CE020686F
:10411000806800F00200022810D1E08E70B1019892
:1041200001280BD1206B007821680873206B401C9C
:104130002063E08E401EE0860020019020688068A9
:1041400000F0010068B1E08F58B12068C068A16B31
:104150000870A06B401CA063E08F401EE087012028
:104160000190FEF703FCA0EB0900B04201D3701CE4
:1041700000B94EB9012084F8510000BF002084F836
:10418000500000BF032029E7E08E0028BFD1E08F58
:104190000028BCD14A463146204601F061FD40B1BD
:1041A0002020606500BF002084F8500000BF01207F
:1041B00014E7A06850B900BF002000902068C068D4
:1041C000009020688068009000BF00BF012084F844
:1041D000510000BF002084F8500000BF606D08B19E
:1041E0000120FBE60020F9E670B504462546681E6E
:1041F000B0F1807F01D301200FE0681E4FF0E02175
:1042000048610F214FF0FF3002F022F800204FF0FC
:10421000E021886107200861002070BDF8B50446E0
:104220000E46174694F8420020282ED106B10FB949
:104230000120F8BD01202063002060633A4631462A
:10424000204601F031FF0546EDB9206B012819D158
:1042500000BF00200090206800680090206840683F
:10426000009000BF00BF00BF00BF21680C3151E8C3
:10427000001F41F0100021680C3141E80002002AC3
:10428000F3D100E001252846D3E70220D1E7000062
:1042900070B504460D4607492068884202D1284679
:1042A00000F046FE04492068884202D1284600F00A
:1042B00067FF70BD004400400048004070470000A8
:1042C0002DE9F84F0446206805682068C668206814
:1042D00047694FF00009CA4605F00F09B9F1000F10
:1042E0000AD105F0200038B106F0200020B12046A8
:1042F00001F0DEFDBDE8F88FB9F1000F7BD007F0CB
:10430000010018B906F49070002874D005F001007F
:1043100030B106F4807018B1606C40F00100606448
:1043200005F0040030B107F0010018B1606C40F0F6
:104330000200606405F0020030B107F0010018B11E
:10434000606C40F00400606405F0080048B106F0BD
:10435000200010B907F0010018B1606C40F00800AF
:104360006064606C002845D005F0200028B106F09C
:10437000200010B1204601F09BFD20684069C0F389
:10438000801A606C00F0080010B9BAF1000F2CD050
:10439000204601F047FD2068406900F0400000B36E
:1043A00000BF00BF2168143151E8001F21F0400018
:1043B0002168143141E80002002AF3D100BFE06B0C
:1043C00050B17748E16B4863E06BFEF7C5F888B100
:1043D000E06B416B88470DE02046FFF76FFF09E077
:1043E00009E02046FFF76AFF04E02046FFF766FF7A
:1043F000002060647EE7206B012877D105F0100073
:10440000002873D006F010000028FAD000BF00206A
:10441000009020680068009020684068009000BF0D
:1044200000BF2068406900F0400000285FD0E06BCA
:10443000006840681FFA80F8B8F1000F55D0A08DD1
:10444000404552DDA4F82E80E06B8069202843D0DF
:1044500000BF00BF21680C3151E8001F21F48070BB
:1044600021680C3141E80002002AF3D100BF00BFEF
:1044700000BF2168143151E8001F21F001002168BC
:10448000143141E80002002AF3D100BF00BF00BF91
:104490002168143151E8001F21F0400021681431D7
:1044A00041E80002002AF3D100BF202084F8420036
:1044B0000020206300BF00BF21680C3151E8001FBD
:1044C00021F0100021680C3141E80002002AF3D1EC
:1044D00000BFE06BFEF715F802206063A08DE28D4F
:1044E000801A81B22046FFF7D3FE03E742E0A08D99
:1044F000E18D401A1FFA80F8E08DD0B3B8F1000FBB
:1045000037D000BF00BF21680C3151E8001F21F4F3
:10451000907021680C3141E80002002AF3D100BFFD
:1045200000BF00BF2168143151E8001F21F00100D5
:104530002168143141E80002002AF3D100BF202095
:1045400084F842000020206300BF00BF21680C31C6
:1045500051E8001F21F0100021680C3141E80002F1
:10456000002AF3D100BF0220606341462046FFF7D6
:104570008FFEBFE605F0800030B106F0800018B174
:10458000204601F0B1FDB5E605F0400030B106F07F
:10459000400018B1204601F07BFCABE600BFA9E665
:1045A000115E000810B504460CB9012010BDA069C9
:1045B00000B100E000BF94F8410028B9002084F861
:1045C0004000204600F02AF8242084F841002068AA
:1045D000C06820F400502168C860204601F0E6FC65
:1045E0002068006920F490402168086120684069D3
:1045F00020F02A00216848612068C06840F400501B
:104600002168C86000206064202084F8410084F89C
:1046100042000020606300BFC8E7000010B586B00C
:1046200004460020029003900490059055492068AC
:1046300088422FD100BF5448806940F480405249DD
:1046400088610846806900F48040019000BF00BF87
:1046500000BF0846806940F0040088610846806910
:1046600000F00400019000BF00BF48150290022036
:1046700003900320059002A94448FDF7D9FF4FF4A9
:104680008060029000200390049002A93F48FDF74B
:10469000CFFF75E03E492068884236D100BF3A48D6
:1046A000C06940F400303849C8610846C06900F468
:1046B0000030019000BF00BF00BF0846806940F095
:1046C000040088610846806900F00400019000BF82
:1046D00000BF04200290022003900320059002A94D
:1046E0002A48FDF7A5FF08200290002003900490BF
:1046F00002A92648FDF79CFF002211462620FEF75E
:1047000049FD2620FEF736FD3AE02249206888421E
:1047100036D100BF1C48C06940F480201A49C861E6
:104720000846C06900F48020019000BF00BF00BFB0
:104730000846806940F0080088610846806900F0FA
:104740000800019000BF00BF0815029002200390EE
:104750000320059002A91048FDF76AFF4FF400609E
:10476000029000200390049002A90B48FDF760FF1F
:10477000002211462720FEF70DFD2720FEF7FAFC48
:1047800006B010BD00380140001002400008014092
:104790000044004000480040000C014070472DE9F3
:1047A000F84F04460E46174699464FF0000A94F813
:1047B0004100202850D106B117B90120BDE8F88F7B
:1047C00000206064212084F84100FEF7CFF8824683
:1047D000A784E784A068B0F5805F04D1206910B990
:1047E0000025B04602E035464FF000081EE0534673
:1047F000002280212046CDF8009001F0A5FC20B1D8
:10480000202084F841000320D8E745B9B8F800001B
:10481000C0F308002168486008F1020803E0287826
:10482000216848606D1CE08C401EE084E08C00280C
:10483000DDD15346002240212046CDF8009001F002
:1048400083FC20B1202084F841000320B6E720201B
:1048500084F841000020B1E70220AFE7704700BFB5
:10486000FEE7014608684069C0F38020B0B16FF4EC
:1048700080600A68506100200863202081F83D00B4
:10488000002081F83E00086C40F00400086400BF7E
:10489000002081F83C0000BF012070470020FCE7A9
:1048A0002DE9F84304460F4615469946DDE908868A
:1048B0002068006840F48060216808602068006813
:1048C00040F4807021680860434600224FF00111D7
:1048D0002046009600F037F960B12068006800F4C7
:1048E0008070B0F5807F02D14FF400702064032007
:1048F000BDE8F88307F0FE002168086133464246B0
:104900003E49204600F07EF908B10120F0E700BFE3
:104910000020009020684069009020688069009025
:1049200000BF00BF32464146204600F02DFA50B18C
:10493000206C042805D12068006840F400702168CC
:1049400008600120D4E7B9F1010F03D1E8B2216872
:10495000086117E0C5F30720216808613246414627
:10496000204600F011FA50B1206C042805D12068CF
:10497000006840F40070216808600120B8E7E8B2E0
:104980002168086132464146204600F0FDF950B1E9
:10499000206C042805D12068006840F4007021686C
:1049A00008600120A4E72068006840F48070216856
:1049B0000860434600224FF001112046009600F0A7
:1049C000C2F858B12068006800F48070B0F5807FAC
:1049D00002D14FF400702064032089E7F8B240F060
:1049E000010021680861334642460449204600F030
:1049F00009F908B101207BE7002079E702000100F6
:104A00002DE9F8430446884615469946DDE90867CE
:104A10002068006840F480702168086033460022F6
:104A20004FF001112046009700F08DF860B120682A
:104A3000006800F48070B0F5807F02D14FF4007000
:104A400020640320BDE8F88308F0FE0021680861B7
:104A50003B4632462149204600F0D4F808B10120F7
:104A6000F0E700BF002000902068406900902068B7
:104A70008069009000BF00BF3A463146204600F0F2
:104A800083F950B1206C042805D12068006840F4F7
:104A90000070216808600120D4E7B9F1010F03D14B
:104AA000E8B22168086117E0C5F3072021680861B2
:104AB0003A463146204600F067F950B1206C042890
:104AC00005D12068006840F400702168086001206A
:104AD000B8E7E8B2216808610020B3E702000100EE
:104AE00070B504460D46164625E02046FFF7B9FE90
:104AF00008B1012070BD681CE8B1FDF737FF801BCD
:104B0000A84200D8BDB920684069C0F3800090B9C0
:104B100000202063202084F83D00002084F83E001F
:104B2000206C40F02000206400BF002084F83C008E
:104B300000BF0120DEE720684069C0F38000002844
:104B4000D3D00020D6E72DE9F04104460D461746A4
:104B50001E46DDF8188038E0701CA8B3FDF706FF8C
:104B6000A0EB0800B04200D876BBC5F3074001288F
:104B70000AD120684069A9B20840A9B2884201D18F
:104B800001200BE0002009E020688069A9B20840FC
:104B9000A9B2884201D1012000E00020B84214D11E
:104BA00000202063202084F83D00002084F83E008F
:104BB000206C40F02000206400BF002084F83C00FE
:104BC00000BF0120BDE8F081FFE7C5F307400128E1
:104BD0000AD120684069A9B20840A9B2884201D12F
:104BE00001200BE0002009E020688069A9B208409C
:104BF000A9B2884201D1012000E00020B842ABD028
:104C00000020DFE72DE9F04104460D4616461F4619
:104C100058E020684069C0F38020E8B1206800684F
:104C200040F40070216808606FF48060216848617A
:104C300000202063202084F83D00002084F83E00FE
:104C4000206C40F00400206400BF002084F83C0089
:104C500000BF0120BDE8F081701C90B3FDF786FE17
:104C6000C01BB04200D866BBC5F3074001280AD17B
:104C700020684069A9B20840A9B2884201D1012048
:104C80000BE0002009E020688069A9B20840A9B2C1
:104C9000884201D1012000E0002090B9002020636B
:104CA000202084F83D00002084F83E00206C40F075
:104CB0002000206400BF002084F83C0000BF0120D9
:104CC000C8E7FFE7C5F3074001280AD1206840691B
:104CD000A9B20840A9B2884201D101200BE000200E
:104CE00009E020688069A9B20840A9B2884201D1D0
:104CF000012000E0002000288BD00020AAE770B53A
:104D000004460D46164637E020684069C0F300109F
:104D1000A0B16FF0100021684861002020632020BE
:104D200084F83D00002084F83E00206C206400BF21
:104D3000002084F83C0000BF012070BDFDF716FE86
:104D4000801BA84200D8BDB920684069C0F380101C
:104D500090B900202063202084F83D00002084F8D2
:104D60003E00206C40F02000206400BF002084F84A
:104D70003C0000BF0120E0E720684069C0F38010DC
:104D80000028C1D00020D8E770B504460D4616466D
:104D900025E02046FFF765FD08B1012070BD681CC5
:104DA000E8B1FDF7E3FD801BA84200D8BDB920683B
:104DB0004069C0F3C01090B900202063202084F81F
:104DC0003D00002084F83E00206C40F0200020646C
:104DD00000BF002084F83C0000BF0120DEE720680F
:104DE0004069C0F3C0100028D3D00020D6E70000EF
:104DF00010B5002208210248FDF7B2FD10BD0000E9
:104E0000000C014070B505460C462846FBF726FA13
:104E1000064631462846FBF704FA002020800E485B
:104E20000088002816DD0D48FBF718FA06463246C2
:104E30000A492846FBF7DCF9074800882080074824
:104E4000FBF70CFA064631460448FBF7EAF9002066
:104E50000149088070BD00002400002004040020E7
:104E600010B5012208210C48FDF77AFD0BA000F0D7
:104E700035F80DA000F032F80EA000F02FF8022453
:104E800006E04FF400620E490E48FFF7C7F90446EA
:104E9000002CF6D110BD0000000C014050434153DE
:104EA00030312C31000000005043415330322C325D
:104EB000353000005043415330342C3200000000A4
:104EC000040400204801002010B5012208210248F6
:104ED000FDF746FD10BD0000000C014070B586B026
:104EE0000446142101A8FBF79CF92578012003E072
:104EF000215C4D40411CC8B2215C0029F8D12B46F1
:104F0000224608A101A801F087F901A8FBF7A6F93C
:104F100086B24FF47A73324601A90448FFF73FFC8A
:104F200006B070BD2425732A2532580048010020A0
:104F300070B5044606480480022506E04FF400627E
:104F400004490548FFF76AF90546002DF6D170BD02
:104F50002400002004040020480100207FB50546FD
:104F60000C461646284600F073F8039026B19DF8CB
:104F70000C002043039003E09DF80C00A043039035
:104F8000002220210D48FDF7EBFC0320FCF77CFC00
:104F90004FF47A70012103AA0B46CDE9002102905B
:104FA0002A464E210648FDF789FF012220210348A9
:104FB000FDF7D6FC0A20FCF767FC7FBD000C014022
:104FC0004000002010B50024C42000F041F8044344
:104FD000C52000F03DF844EA0024C62000F038F86F
:104FE00044EA0044204610BD70B500221021C320C1
:104FF000FFF7B4FFC32000F02BF805462F2109A0CE
:10500000FBF73CF928B12F2106A0FBF737F9401C2C
:1050100000E004A004462B463322214608A001F0FC
:10502000EBF870BD2E2E5C496E745C4453333535FD
:10503000335C496E745F4453333535332E6300005F
:105040005B25733A25645D25233032780D0A000014
:105050001FB5044600200390002220210F48FDF7D1
:105060007FFC0320FCF710FC4FF47A70012103AAA7
:105070000B46CDE90021029022464F210848FDF75A
:1050800063FD012220210548FDF76AFC0A20FCF798
:10509000FBFB9DF80C0004B010BD0000000C0140AB
:1050A0004000002010B504490868804741F23420D0
:1050B000FCF72BFF10BD00000478000870B5044613
:1050C0000D4603480022294643682046984770BD94
:1050D0000478000830B58DB004460D46342168468A
:1050E000FBF79FF82B46224608A1684601F094F88A
:1050F000684600F09BF80AA10A48FBF79DF810B13A
:1051000000200DB030BD0120FBE7000041542B4EC4
:10511000534F434F3D302C25732C25640D0A00005E
:105120004F4B0000840C002010B506A000F07EF864
:105130000AA10B48FBF780F808B1002010BD012040
:10514000FCE7000041542B4E534F43523D53545201
:1051500045414D2C362C302C300D0A004F4B0000B1
:10516000840C002010B502A000F060F810BD000013
:1051700041542B464153544F46463D300D0A0000E2
:1051800070B5044606480480022505E080220549E2
:105190000548FFF743F80546002DF7D170BD000024
:1051A00026000020040C00209001002010B500F023
:1051B000AFFA022405E0802206490748FFF72EF8DF
:1051C0000446002CF7D105A000F030F805A000F04F
:1051D0002DF810BD040C00209001002041542B52EA
:1051E000420D0A0041542B4E49545A3D300D0A00DD
:1051F00010B506A000F01AF807A10948FBF71CF843
:1052000008B1002010BD0120FCE7000041542B43F1
:10521000474154543F0D0A0043474154543A31002A
:10522000840C002010B500F073FA10BD2DE9F04198
:1052300004463248FBF712F8064631462F48FAF783
:10524000F0FF00202E4908802E48FBF707F806469D
:1052500031462C48FAF7E5FF00202B49088020460C
:10526000FAF7FCFF86B24FF47A733246214627489C
:10527000FFF795FA042500BFFDF778FB86B200BF63
:105280001F48008830B9FDF771FB801B40F6B8312C
:105290008842F5D31A48008800B92CE01748FAF77D
:1052A000DDFF07461749184A128888183A461349FD
:1052B000FAF79EFF144800881149098808441249EA
:1052C00008800E48FAF7CAFF074639460B48FAF736
:1052D000A8FF00200A4908800DA10A48FAF7ACFF90
:1052E00048B90CA10748FAF7A7FF20B9281EA5F175
:1052F0000101CDB2C0D100BFBDE8F081040C002097
:1053000026000020840C00202800002090010020AE
:105310004F4B00004552524F5200000070B5ADF5A2
:105320007A7D05460E464FF4FA717DA8FAF779FFAB
:10533000002408E0325D7DA901EB44000FA100F0DC
:105340006BFF601C84B2AC42F4DB4FF4FA71684628
:10535000FAF767FF7DAB2A460AA1684600F05CFFBA
:105360006846FFF763FF0EA10E48FAF765FF18B114
:1053700000200DF57A7D70BD0120FAE725303278E6
:105380000000000041542B4E534F53443D302C2518
:10539000642C25732C30783230300D0A0000000068
:1053A0004F4B0000840C00202DE9F04780468946D1
:1053B00016461F460B2414E00120FCF76BFA2F2140
:1053C0007DA0FAF75BFF28B12F217BA0FAF756FFEB
:1053D000401C00E078A08246AE2251467DA000F03D
:1053E0000BFFFFF705FF18B1601EC0B2041EE3D12A
:1053F000002C14D12F2170A0FAF740FF28B12F21E3
:105400006DA0FAF73BFF401C00E06BA08246B32280
:10541000514677A000F0F0FE0220BDE8F0872F2172
:1054200065A0FAF72BFF28B12F2163A0FAF726FF1A
:10543000401C00E060A08246B622514672A000F0F7
:10544000DBFE0B2414E00120FCF724FA2F215AA0E4
:10545000FAF714FF28B12F2157A0FAF70FFF401CCD
:1054600000E055A08246BD2251466DA000F0C4FE6A
:10547000FFF75AFE18B1601EC0B2041EE3D1002C23
:1054800013D12F214CA0FAF7F9FE28B12F214AA001
:10549000FAF7F4FE401C00E047A08246C2225146C3
:1054A00068A000F0A9FE0220B7E72F2142A0FAF77A
:1054B000E5FE28B12F2140A0FAF7E0FE401C00E0F5
:1054C0003DA08246C522514666A000F095FE0B2401
:1054D00014E00120FCF7DEF92F2137A0FAF7CEFE09
:1054E00028B12F2134A0FAF7C9FE401C00E032A0F9
:1054F0008246CC22514662A000F07EFE49464046DC
:10550000FFF7E8FD18B1601EC0B2041EE1D19CB9DE
:105510002F2129A0FAF7B2FE28B12F2126A0FAF7F1
:10552000ADFE401C00E024A08246D12251465CA082
:1055300000F062FE022070E72F211FA0FAF79EFE06
:1055400028B12F211CA0FAF799FE401C00E01AA0F8
:105550008246D422514658A000F04EFE39463046CD
:10556000FFF7DCFE05469DB92F2113A0FAF786FE52
:1055700028B12F2110A0FAF781FE401C00E00EA0F8
:105580008246DA22514654A000F036FE002044E75D
:105590002F2109A0FAF772FE28B12F2106A0FAF7F1
:1055A0006DFE401C00E004A08246DF22514651A05F
:1055B00000F022FE012030E72E2E5C496E745C5113
:1055C000533130305C496E745F51533130302E634B
:1055D000000000005B25733A25645D515331303083
:1055E000C1AACDF8D6D02E2E2E2E2E2E0D0A0000BA
:1055F0005B25733A25645D5153313030C1AACDF833
:10560000B3ACCAB10D0A00005B25733A25645D5145
:1056100053313030C1AACDF8B3C9B9A60D0A000084
:105620005B25733A25645D5153313030B4B4BDA865
:10563000CDA8D0C5CDA8B5C02E2E2E2E2E2E0D0A4B
:10564000000000005B25733A25645D515331303012
:10565000B4B4BDA8CDA8D0C5CDA8B5C0B3ACCAB1AF
:105660000D0A00005B25733A25645D5153313030DB
:10567000B4B4BDA8CDA8B5C0B3C9B9A60D0A000081
:105680005B25733A25645D5153313030C1B4BDD3CD
:10569000B7FECEF1C6F72E2E2E2E0D0A000000000A
:1056A0005B25733A25645D5153313030C1B4BDD3AD
:1056B000B3ACCAB10D0A00005B25733A25645D5195
:1056C00053313030C1B4BDD3B7FECEF1C6F7B3C944
:1056D000B9A60D0A000000005B25733A25645D51F0
:1056E00053313030C9CFB1A8CAFDBEDDB3C9B9A6A8
:1056F0000D0A00005B25733A25645D51533130304B
:10570000C9CFB1A8CAFDBEDDCAA7B0DC0D0A000032
:1057100010B5012251030648FDF722F90120FCF7DC
:10572000B9F800224FF400510148FDF719F910BDF6
:10573000000C014000B585B000200190029003905C
:10574000049000BF3348806940F0100031498861FF
:105750000846806900F01000009000BF00BF00BF45
:105760000846806940F0200088610846806900F0A2
:105770002000009000BF00BF00BF0846806940F0D5
:10578000040088610846806900F00400009000BFB2
:1057900000BF00BF0846806940F0080088610846E5
:1057A000806900F00800009000BF00BF01221021B6
:1057B0001948FDF7D5F8012221211848FDF7D0F846
:1057C000002243F20C011548FDF7CAF810200190A1
:1057D00001200290002003900220049001A90E48AD
:1057E000FCF726FF43F22D000190012002900020DB
:1057F00003900220049001A90848FCF719FF022039
:10580000019000200290039001A90448FCF710FFCA
:1058100005B000BD0010024000080140000C01402E
:1058200010B50B480B4908600B4848600021094837
:105830008160C1604FF4804101610021416181615B
:10584000C1610162FDF798F808B1FCF757FE10BD81
:105850000054004040000020A086010010B5084818
:10586000084908604FF0FF3048604FF480710548E8
:105870008160FEF7E9F908B1FCF740FE10BD0000B9
:10588000002800409400002010B50E480E49086022
:105890004FF48270486000210B488160C160016153
:1058A00041614FF4007181610821C16100210162F1
:1058B000416281620A21C162FEF7D0FA08B1FCF7A9
:1058C0001DFE10BD00300140A800002010B50B489F
:1058D0000B4908604FF4E1304860002108488160BE
:1058E000C16001610C21416100218161C161FEF74C
:1058F00059FE08B1FCF702FE10BD0000003801405F
:105900000001002010B50B480B4908604FF41650F9
:105910004860002108488160C16001610C2141613B
:1059200000218161C161FEF73DFE08B1FCF7E6FD93
:1059300010BD0000004400404801002010B50B4895
:105940000B4908604FF416504860002108488160F8
:10595000C16001610C21416100218161C161FEF7DB
:1059600021FE08B1FCF7CAFD10BD00000048004050
:105970009001002000BFFEE700BFFEE77047000077
:1059800008B508490968C9084FF47A72B1FBF2F109
:105990004143009100BF00BF00994A1E00920029B8
:1059A000F9D108BD0C000020014600BF080900EB3A
:1059B0008000420001F00F001044C0B27047014661
:1059C000002203E0521CA1F10A00C1B20A29F9D257
:1059D000100741EA106070472DE9F04706468846F7
:1059E000002700240025A146F77B747BB57B00BF10
:1059F00040E0012C0BD0032C09D0052C07D0072C3C
:105A000005D0082C03D00A2C01D00C2C0CD11F2D52
:105A100001D26D1C2CE00C2C02D0641C012527E067
:105A2000012401257F1C23E0042C05D0062C03D083
:105A3000092C01D00B2C06D11E2D01D26D1C17E0B4
:105A4000641C012514E0022C12D11C2D01D26D1C06
:105A50000EE01C2D08D1B8B200F053F808B16D1C4F
:105A600006E0641C012503E01D2D01D1641C012505
:105A700009F10109C145BCD3F7737473B573EAB278
:105A8000E1B2384600F07CF83073BDE8F08770B5BD
:105A900004460025FCF76AFF054607E0FCF766FFB1
:105AA000401BB0F57A7F01D9032070BD20684068A3
:105AB00000F020000028F1D02068406840F010007D
:105AC000216848600020F0E770B504460025206892
:105AD000406820F0100021684860FCF747FF054649
