:020000040800F2
:10000000980600204901000859280008FF2300082D
:10001000552800081B040008852C0008000000007B
:100020000000000000000000000000001D2A000881
:1000300045040008000000005D2800081F2A000891
:100040006301000863010008630100086301000800
:1000500063010008630100086301000863010008F0
:1000600063010008630100086301000863010008E0
:1000700063010008630100086301000863010008D0
:1000800063010008630100086301000863010008C0
:1000900063010008630100086301000863010008B0
:1000A00063010008630100086301000863010008A0
:1000B0006301000863010008630100086301000890
:1000C0006301000863010008630100086301000880
:1000D0006301000863010008630100086301000870
:1000E0006301000863010008630100086301000860
:1000F0006301000863010008630100086301000850
:10010000630100086301000863010008630100083F
:10011000630100086301000863010008630100082F
:10012000630100086301000863010008630100081F
:10013000DFF810D000F050F90048004739330008CC
:10014000AFF3008098060020064880470648004725
:10015000FEE7FEE7FEE7FEE7FEE7FEE7FEE7FEE777
:10016000FEE7FEE78D2A000831010008202A04DBA3
:10017000203A21FA02F00021704721FA02F3D04020
:10018000C2F120029140084319467047D2B201E003
:1001900000F8012B491EFBD270470022F6E710B58C
:1001A00013460A4604461946FFF7F0FF204610BDE5
:1001B0000022CBB20178994200D10246401C0029AE
:1001C000F8D1104670472DE9F04D81EA030404F0A0
:1001D000004B21F0004514464FF0000A23F0004187
:1001E00050EA050220D054EA01021DD0C5F30A5797
:1001F0000246C5F31303C1F31300C1F30A5640F4DA
:10020000801543F48013A7EB0608101BD64608F2AE
:10021000FD3873EB050002D308F1010801E09218E4
:100220005B41B8F1000F03DA00200146BDE8F08D14
:1002300000204FF48011064684460EE0171B73EB36
:10024000050705D3121B63EB050306434CEA010CBB
:1002500049084FEA300092185B4150EA0107EDD19E
:1002600052EA030012D082EA040083EA050108433F
:1002700005D0101BAB4106D20122002306E000226C
:100280004FF0004302E06FF0010253101AEB06003A
:100290004CEB085110EB0A0041EB0B01BDE8F04DAF
:1002A00000F03CB80EB540F2334102910021CDE997
:1002B00000110A460B4600F040F803B000BDC1F340
:1002C0000A5210B5C1F3130140F2FF3341F480111B
:1002D0009A4201DA002010BD40F233439A42A2F262
:1002E000334203DC5242FFF741FF10BD904010BD86
:1002F00030B50B46014600202022012409E021FAF6
:1003000002F59D4205D303FA02F5491B04FA02F5F2
:100310002844151EA2F10102F1DC30BD10B5141EF7
:1003200073F1000408DA401C41F1000192185B41AE
:100330001A4301D120F0010010BD2DE9F04D924685
:100340009B4611B1B1FA81F202E0B0FA80F220329C
:10035000904600F053F804460F4640EA0A0041EA8E
:100360000B0153465A46084313D0114653EA010085
:1003700019D0C8F140025046FFF7F8FE05460E4678
:1003800050465946424600F039F8084305D001204E
:1003900004E020463946BDE8F08D0020054346EADA
:1003A000E0762C4337430A986305E40AA0EB080083
:1003B0000022FD0A44EA47540A3002D500200146D3
:1003C000E9E7010510196941DDE9084500196941AE
:1003D000BDE8F04DA2E70000064C074D06E0E068DE
:1003E00040F0010394E8070098471034AC42F6D37C
:1003F000FFF7A2FE5439000874390008202A04DBF4
:10040000203A00FA02F1002070479140C2F1200327
:1004100020FA03F319439040704700BFFEE710B580
:100420000446204600F072FD10BD10B5044603E0FE
:100430004FF47A70FFF7F3FF201EA4F101018CB294
:10044000F6D110BD704701B501226946892000F040
:10045000CAFB08BD38B504461B48844206D9E120D2
:100460008DF80000E9208DF8010026E0174884424D
:1004700006D9D7208DF80000D8208DF801001CE0A7
:100480001348844206D9C1208DF80000C5208DF89C
:10049000010012E00F48844206D975208DF8000053
:1004A00081208DF8010008E00B48844205D96B20BB
:1004B0008DF800006F208DF8010002226946982017
:1004C00000F091FB38BD000000E9A43580F8A932A6
:1004D0008044E52D000B6B1B40FC541910B500F057
:1004E00055F818B100F052F8062801D100F04BFB86
:1004F00000F042FB10BD38B50446200A8DF800001C
:10050000E0B28DF8010002226946104600F06BFB54
:1005100038BD1020704708B502226946122000F04D
:1005200006F99DF801009DF8001040EA012008BD81
:1005300038B5044603226946142000F0F8F89DF807
:1005400000004042C0F3470121739DF8010080285C
:1005500004DA9DF801008110617306E09DF8010046
:10056000A0F58070C0F3870161739DF802004042DE
:10057000C0F34701A17302480168216138BD000042
:100580001400002000487047000420020148007851
:100590007047000010000020F8B505460C461646CE
:1005A000002000906946204600F00DF82078B04207
:1005B00001DD0120F8BD227829469DF8000000F0F9
:1005C00092F80020F6E738B504460D460222694647
:1005D000132000F0ACF840F2047000F0C9F80121DB
:1005E000B1EBE01F05D140F2027000F0C1F82070BD
:1005F00002E09DF8000020709DF80100287038BDD1
:100600002DE9F04100F0E5F800F0BDFA01201C49A9
:10061000087000F04BFA1C2140F6111000F002FBAC
:100620001C2140F6121000F0FDFA012000F020F924
:10063000012000F0B4F90021084600F00CF9012077
:1006400000F096F90F488479C579067A324621463A
:10065000284600F063F945F24B7000F052F9FF2094
:1006600000F032F9084F384600F0A0F907211620B3
:1006700000F060FA002000F0D3F9BDE8F08100003E
:10068000100000208C38000888F6D01938B5FFF724
:1006900042FF044600200090F4B12046FFF72BFFF4
:1006A00004F00200022811D10C48FFF741FFFF229D
:1006B00069460B48FFF770FF9DF800200849204667
:1006C00000F0EEFA002000F0ABF905E09DF8002004
:1006D0000349204600F0E4FA38BD00007401002010
:1006E0008801002070472DE9F04107460D46164667
:1006F000FFF7F4FE002000F06BFB1E2000F07CFBF7
:10070000384600F079FB002000F076FB002405E07D
:10071000002000F071FB2855601C84B2B442F7DB66
:10072000012000F055FB00F027FABDE8F0812DE92B
:10073000F04107460D461646FFF7D0FE002000F0B8
:1007400047FB384600F058FB002000F055FB002422
:1007500005E0002000F050FB2855601C84B2B44234
:10076000F7DB012000F034FB00F006FABDE8F08171
:1007700038B5044601226946204600F003F89DF88A
:10078000000038BD2DE9F04104460E461746FFF73C
:10079000A5FE002000F01CFB1D2000F02DFB200A10
:1007A00000F02AFBE0B200F027FB002000F024FB61
:1007B000002505E0002000F01FFB7055681C85B285
:1007C000BD42F7DB012000F003FB00F0D5F9BDE8E6
:1007D000F08110B50A2000F05DFA002000F0D2FA96
:1007E000142000F057FA012000F0CCFA142000F099
:1007F00051FA10BD10B5002000F072FB012000F08E
:10080000D5FA10BD10B5002000F0D0FA012000F09C
:1008100067FB10BD2DE9F04107460C461546204602
:1008200000F052F82146384600F0B0F8284600F0B3
:1008300051F9002600BF012000F02CFAFFF76BFEF3
:100840000646002EF7D03046FFF755FE304600F042
:10085000E5FABDE8F08138B505460C468DF8005044
:100860008DF80140022269468F2000F0BCF938BDA6
:1008700001B5012269469D2000F0B5F908BD2DE9BA
:10088000FC4107460C4615461E46380A8DF8000006
:10089000F8B28DF80100200A8DF80200E0B28DF860
:1008A0000300280A8DF80400E8B28DF80500300A2C
:1008B0008DF80600F0B28DF8070008226946104650
:1008C00000F091F9BDE8FC813EB50546002000909E
:1008D000019002903C24200A8DF800008DF8014020
:1008E00000208DF802008DF8035001208DF80400DF
:1008F00000208DF80500062269468C2000F073F96F
:100900003EBD10B50446210A4FF4E86000F08AF9B4
:10091000E1B240F2417000F085F910BD7CB50646A9
:100920000C4615460020009001908DF800608DF86F
:1009300001408DF8025001208DF803000422694621
:100940008B2000F050F97CBDF8B504460D461646E4
:100950001F468DF800408DF801508DF802608DF82B
:10096000037004226946952000F03DF9F8BD0000AF
:1009700001B59DF8000004490870012269468A20EB
:1009800000F031F908BD00001100002070B50446E8
:100990000D462A462146002000F005F970BD01B53C
:1009A00001226946962000F01EF908BD2DE9FC479A
:1009B00081460024FF2000900098FFF744FD484640
:1009C000FFF748FD012000F071F81C2140F61110DE
:1009D00000F028F91C2140F6121000F023F94846D7
:1009E000FFF760FC074600220C4BFFF7ECFB0546C7
:1009F000FFF765FC0446200E8DF80400200C8DF8EE
:100A00000500200A8DF80600E0B28DF807000422E8
:100A100001A9862000F0E7F8BDE8FC878084EE3F5E
:100A200038B50446052017490870012000F03EF84B
:100A30001C2140F6111000F0F5F81C2140F61210B0
:100A400000F0F0F800231A4640F202210846FFF7B2
:100A500016FFFF20FFF738FF4FF6FF70FFF74BFD43
:100A6000FFF7C8FE200C8DF80000200A8DF8010069
:100A7000E0B28DF8020003226946822000F0B3F84C
:100A800038BD00001000002001B5002000F028FA59
:100A9000002000F08BF901226946842000F0A3F8C1
:100AA00000200149087008BD1000002001B5012296
:100AB0006946802000F097F89DF8000018B90120E1
:100AC0000349087002E002200149087008BD0000D7
:100AD0001000002038B50446042015490870FFF7BF
:100AE00091FE0120FFF7E2FF1C2140F6111000F0FB
:100AF00099F81C2140F6121000F094F800231A46D1
:100B000040F201210846FFF7BAFE4FF6FF70FFF7EB
:100B1000F2FC200C8DF80000200A8DF80100E0B2F4
:100B20008DF8020003226946832000F05CF838BD8E
:100B30001000002038B504460D460123002207218D
:100B40000420FFF701FF162C01DD162404E014F148
:100B5000030F01DA6FF00204382140F6E70000F0DD
:100B600061F8E0B28DF800008DF80150022269466C
:100B70008E2000F038F838BD10B500BF00F07EF8C8
:100B80000028FBD110BD10B5002000F021F9C020D5
:100B900000F032F9002000F02FF9012000F018F9E0
:100BA000FFF7EAFF10BD2DE9F04107460D46164656
:100BB000FFF794FC002000F00BF90E2000F01CF968
:100BC000384600F019F9002404E0285D00F014F91B
:100BD000601C84B2B442F8DB012000F0F9F8FFF7A2
:100BE000CBFFBDE8F0812DE9F04105460E461746E2
:100BF000FFF774FC002000F0EBF8284600F0FCF84A
:100C0000002404E0305D00F0F7F8601C84B2BC42C0
:100C1000F8DB012000F0DCF8842D01D0FFF7ACFFF9
:100C2000BDE8F08113B50446012201A9204600F079
:100C300001F81CBD2DE9F04104460E461746FFF7AA
:100C40004DFC002000F0C4F80D2000F0D5F8200A7B
:100C500000F0D2F8E0B200F0CFF8002504E0705DBB
:100C600000F0CAF8681C85B2BD42F8DB012000F034
:100C7000AFF8FFF781FFBDE8F081000010B5002458
:100C80000421034800F0F6FA0446204610BD000097
:100C90000018014010B50446204600F037F910BD99
:100CA000F8B504460D46164604F00200002818D098
:100CB0002F2119A0FFF77CFA28B12F2116A0FFF7EA
:100CC00077FA401C00E014A007462B466022394604
:100CD0001BA0009602F0D6F83146284601F0A4FC8D
:100CE00018E004F40070002812D02F210AA0FFF7AA
:100CF0005FFA28B12F2108A0FFF75AFA401C00E044
:100D000005A007466822394617A002F0BBF801E0AB
:100D100000BFFEE7F8BD00002E2E5C496E745C6CCF
:100D20006F72615C45323230784D785C65627974FF
:100D3000655F63616C6C6261636B2E630000000031
:100D40005B25733A25645D6C6F7261BDD3CAD5B5FE
:100D5000BDCAFDBEDDB5C4CAB1BAF2D6B4D0D02585
:100D6000732C25640D0A00005B25733A25645D6CC5
:100D70006F7261BDD3CADCCAFDBEDDB3ACCAB10DB2
:100D80000A00000010B50446012C05D101224103E0
:100D9000054800F077FA05E000224FF400510248C0
:100DA00000F070FA10BD00000020014010B50446AC
:100DB000012C05D101222021044800F063FA04E04F
:100DC00000222021014800F05DFA10BD001801400A
:100DD00010B50446012C05D101228103054800F01D
:100DE00051FA05E000224FF48041024800F04AFA2F
:100DF00010BD00000020014001B582B0002001902C
:100E00004FF47A70012301AA02A90090024801F070
:100E1000D9F89DF804000EBD7C00002070B5044692
:100E200004F00100002812D02F2116A0FFF7C0F90E
:100E300028B12F2113A0FFF7BBF9401C00E011A03F
:100E400005463622294619A002F01CF818E004F4E1
:100E50000070002812D02F210AA0FFF7A9F928B1AD
:100E60002F2108A0FFF7A4F9401C00E005A00546CB
:100E70003C22294614A002F005F801E000BFFEE77D
:100E800070BD00002E2E5C496E745C6C6F72615CEC
:100E900045323230784D785C65627974655F6361A4
:100EA0006C6C6261636B2E63000000005B25733A1B
:100EB00025645D6C6F7261B7A2CBCDCAFDBEDDB398
:100EC000C9B9A60D0A0000005B25733A25645D6C64
:100ED0006F7261B7A2CBCDB3ACCAB10D0A000000EE
:100EE00010B50446012C05D101224021044800F030
:100EF000C9F904E000224021014800F0C3F910BD07
:100F00000018014072B600BFFEE7000070B504464D
:100F100000F0BEF906462546681C10B1044800786A
:100F2000054400BF00F0B4F9801BA842FAD370BD9D
:100F3000080000202DE9F847024600239C467BE18B
:100F40004FF0010808FA03F4D1F8008008EA040021
:100F5000A0427DD1DFF8F4A2D1F80480A8EB0A0901
:100F6000D0453AD014DCB8F1030F50D009DCB8F109
:100F7000000F31D0B8F1010F1CD0B8F1020F49D1E8
:100F800020E0B8F1110F18D0B8F1120F42D11EE0D5
:100F9000B9F5881F25D006DCB9F5803F20D0B9F51A
:100FA000801F37D11AE0B9F5001F18D0B9F5041F1A
:100FB00030D117E0D1F80CC02DE0D1F80C8008F149
:100FC000040C28E0D1F80C8008F1080C23E0D1F8DB
:100FD0000C8008F10C0C1EE000BF00BF00BF00BF7A
:100FE00000BF00BFD1F80880B8F1000F02D14FF068
:100FF000040C0BE0D1F80880B8F1010F03D14FF0D9
:10100000080C146102E04FF0080C546103E04FF04B
:10101000000C00E000BF00BFFF2801D8904601E0AF
:1010200002F104084646FF2802D84FEA830803E08D
:10103000A3F108084FEA88084746D6F800804FF029
:101040000F0909FA07F928EA09080CFA07F900E07C
:101050007AE048EA0908C6F80080D1F8048008F070
:101060008058B8F1805F6FD100BFDFF8E481D8F815
:10107000188048F00108DFF8D891C9F81880C846F0
:10108000D8F8188008F00108CDF8008000BF00BF34
:101090004FEAB9384FEA930958F829504FEA837854
:1010A0004FEA18794FF00F0808FA09F825EA080501
:1010B000DFF8A081424502D14FF0000824E0DFF8BC
:1010C0009881424502D14FF001081DE0DFF88C8184
:1010D000424502D14FF0020816E0DFF88481424514
:1010E00002D14FF003080FE0DFF87881424502D1CA
:1010F0004FF0040808E0DFF87081424502D14FF05C
:10110000050801E04FF006084FEA83794FEA1979A4
:1011100008FA09F848EA0505DFF850814FEA930913
:1011200048F82950D1F8048008F48018B8F5801FD9
:101130000BD1DFF83C81D8F8008048EA0008DFF8DE
:101140003091C9F800800AE075E0DFF82481D8F812
:10115000008028EA0008DFF81891C9F80080D1F86B
:10116000048008F40018B8F5001F0ED1DFF80081E4
:1011700008F10408D8F8008048EA0008DFF8F09089
:1011800009F10409C9F800800DE0DFF8E48008F1F6
:101190000408D8F8008028EA0008DFF8D49009F1A4
:1011A0000409C9F80080D1F8048008F40038B8F5C3
:1011B000003F0ED1DFF8B880A8F10408D8F800800D
:1011C00048EA0008DFF8A890A9F10409C9F80080EE
:1011D0000DE0DFF89C80A8F10408D8F8008028EA28
:1011E0000008DFF88C90A9F10409C9F80080D1F853
:1011F000048008F48038B8F5803F0ED1DFF87080A5
:10120000A8F10808D8F8008048EA0008DFF86090E4
:10121000A9F10809C9F800800DE0DFF85480A8F1B1
:101220000808D8F8008028EA0008DFF84490A9F1FF
:101230000809C9F800805B1CD1F8008028FA03F87F
:10124000B8F1000F7FF47CAEBDE8F8870000111004
:101250000010024000080140000C01400010014055
:101260000014014000180140001C0140080001402A
:1012700008040140024693680B400BB1012000E0D6
:10128000002070470AB1016101E00B04036170475F
:101290000148006870470000000000200348006813
:1012A000034909780844014908607047000000209C
:1012B0000800002010B50848006840F010000649FA
:1012C0000860032000F098F80F2000F007F800F005
:1012D0002BF8002010BD00000020024070B504462D
:1012E0000E4800784FF47A71B1FBF0F00C490968B0
:1012F000B1FBF0F5284600F089FF08B1012070BD70
:10130000102C07D200222146501E00F037F8054865
:10131000046001E00120F2E70020F0E7080000206F
:101320000C0000200400002008B500BF11488069AF
:1013300040F001000F4988610846806900F0010013
:10134000009000BF00BF00BF0846C06940F0805059
:10135000C8610846C06900F08050009000BF00BF1F
:1013600000BF0549486820F0E06040F00070486028
:1013700000BF08BD00100240000001402DE9F05FF1
:1013800080460D461646002701F08CFD074639467B
:101390002A46334601F00700C0F1070ABAF1040FEC
:1013A00002D94FF0040A01E0C0F1070AD14600F16A
:1013B000040ABAF1070F02D24FF0000A01E0A0F1CF
:1013C000030AD4464FF0010A0AFA09FAAAF1010AFF
:1013D0000AEA020A0AFA0CFA4FF0010B0BFA0CFBAC
:1013E000ABF1010B0BEA030B4AEA0B042146404622
:1013F00001F060FDBDE8F09F00BF00F00702064B62
:1014000019684FF6FF031940044B0B4343EA0221CE
:10141000014B196000BF70470CED00E00000FA05B9
:1014200070B504460D460CB9012070BD5A480068DD
:1014300000F00700A8420ED25748006820F00700CD
:101440002843554908600846006800F00700A84294
:1014500001D00120E9E7207800F0020002281DD128
:10146000207800F00400042805D14C48406840F47E
:10147000E0604A494860207800F00800082805D15B
:101480004648406840F460504449486043484068DA
:1014900020F0F000A168084340494860207800F03F
:1014A000010078B36068012806D13C48006800F468
:1014B000003090B90120B8E76068022806D13748AB
:1014C000006800F0007040B90120AEE733480068C2
:1014D00000F0020008B90120A7E73048406820F07A
:1014E0000300616808432D494860FFF7D1FE0646B6
:1014F00009E0FFF7CDFE801B41F28831884202D916
:10150000032092E707E02548406800F00C0061687E
:10151000B0EB810FEDD12048006800F00700A84231
:101520000ED91D48006820F0070028431A490860BA
:101530000846006800F00700A84201D0012074E7C7
:10154000207800F00400042807D11448406820F4F3
:10155000E060E168084311494860207800F0080025
:10156000082808D10D48406820F46050216940EAFD
:10157000C1000A49486000F03FF808494968C1F3D2
:101580000311074A515CC8400649086006480068D4
:10159000FFF7A4FE002048E70020024000100240B0
:1015A000523800080C0000200400002001480068A8
:1015B000704700000C00002000B5FFF7F7FF04495A
:1015C0004968C1F30221034A515CC84000BD0000D4
:1015D000001002406238000800B5FFF7E7FF044939
:1015E0004968C1F3C221034A515CC84000BD0000F4
:1015F000001002406238000870B50021002200246B
:1016000000230020134D696801F00C05F5B1042D8D
:1016100002D0082D19D101E00F4819E00F4DC1F398
:101620008346AB5D01F4803555B10A4D6D68C5F355
:1016300040450B4E725D084D5D43B5FBF2F402E090
:10164000084D03FB05F4204602E000BF024800BF3E
:1016500000BF70BD0010024000127A004038000840
:101660005038000800093D00F8B504460CB90120C7
:10167000F8BD207800F00100002878D0F8484068D4
:1016800000F00C0004280CD0F548406800F00C0075
:10169000082811D1F248406800F48030B0F5803F4E
:1016A0000AD1EF48006800F4003000285FD060687D
:1016B00000285CD10120DBE700BF6068B0F5803F07
:1016C00006D1E748006840F48030E549086028E02A
:1016D000606858B9E248006820F48030E04908604A
:1016E0000846006820F4802008601AE06068B0F5C1
:1016F000A02F0BD1DA48006840F48020D849086058
:101700000846006840F4803008600AE0D448006869
:1017100020F48030D24908600846006820F4802018
:10172000086000BF606888B1FFF7B2FD054606E0BB
:10173000FFF7AEFD401B642801D9032098E7C84895
:10174000006800F400300028F2D010E0FFF7A0FDA0
:10175000054606E0FFF79CFD401B642801D90320E5
:1017600086E7BF48006800F400300028F2D12078F6
:1017700000F00200022857D1B948406800F00C0080
:1017800050B1B748406800F00C00082818D1B448A0
:10179000406800F4803098B9B148006800F0020059
:1017A00020B12069012801D0012061E7AC48006820
:1017B00020F0F800616940EAC100A949086033E0FF
:1017C0002069E8B10120A7490860FFF761FD0546DF
:1017D00006E0FFF75DFD401B022801D9032047E723
:1017E0009F48006800F002000028F2D09C48006882
:1017F00020F0F800616940EAC1009949086013E0EF
:10180000002098490860FFF743FD054606E0FFF712
:101810003FFD401B022801D9032029E790480068BA
:1018200000F002000028F2D1207800F0080008281B
:101830002DD1A069B8B101208B490860FFF728FDC0
:10184000054606E0FFF724FD401B022801D90320CE
:101850000EE78348406A00F002000028F2D0012021
:1018600000F0FEFF13E000207F490860FFF710FD45
:10187000054606E0FFF70CFD401B022801D90320B6
:10188000F6E67748406A00F002000028F2D120789E
:1018900000F00400042873D100277148C06900F0EB
:1018A000805070B900BF6E48C06940F080506C49EC
:1018B000C8610846C06900F08050009000BF00BFBA
:1018C00001276A48006800F48070B0B96748006872
:1018D00040F4807065490860FFF7DAFC054606E0D1
:1018E000FFF7D6FC401B642801D90320C0E65F48FF
:1018F000006800F480700028F2D000BFE068012882
:1019000006D15748006A40F001005549086227E0B7
:10191000E06858B95248006A20F001005049086256
:101920000846006A20F00400086219E0E068052813
:101930000BD14B48006A40F0040049490862084650
:10194000006A40F0010008620AE04548006A20F0A1
:101950000100434908620846006A20F0040008625A
:1019600000BFE068A0B1FFF793FC054609E0FFF770
:101970008FFC401B41F28831884202D9032077E670
:1019800022E03748006A00F002000028EFD012E0A1
:10199000FFF77EFC054608E0FFF77AFC401B41F2AA
:1019A0008831884201D9032062E62D48006A00F0A0
:1019B00002000028F0D1012F05D12948C06920F08C
:1019C00080502749C86100BFE069C8B32448406817
:1019D00000F00C00082860D0E069022848D10020FF
:1019E00020490866FFF754FC054606E0FFF750FC67
:1019F000401B022801D903203AE61948006800F08C
:101A000000700028F2D1206AB0F5803F07D1144859
:101A1000406820F40030A168084311494860D4E9C7
:101A2000080108430E49496821F4741108430C4920
:101A3000486001200B490866FFF72AFC054607E0CD
:101A40003DE0FFF725FC401B022801D903200FE6EB
:101A50000348006800F000700028F2D02FE000007A
:101A600000100240000042428004424200700040E8
:101A7000002014490866FFF70BFC054606E0FFF757
:101A800007FC401B022801D90320F1E50E4800683D
:101A900000F000700028F2D111E0E069012800D1C7
:101AA000E6E50948466806F48031206A814204D19F
:101AB00006F47011606A814201D00120D8E500204F
:101AC000D6E50000000042420010024010B5044676
:101AD0000CB9012010BD606A38B96068B0F5827F2A
:101AE00000D105E00021E16102E000212161616196
:101AF0000021A16294F8510028B9002084F8500018
:101B0000204600F043F8022084F851002068006865
:101B100020F0400021680860A08800F482702189CC
:101B200001F404410843A18901F400610843217CC8
:101B300001F002010843217D01F001010843218BDE
:101B400001F400710843217F01F03801084320218E
:101B5000095D01F080010843218D01F40051084323
:101B6000216808600421A06901EA104021684860EA
:101B70002068C06920F400602168C86100206065A9
:101B8000012084F851000020A4E7000010B586B0C1
:101B90000446002002900390049005903449206888
:101BA00088422ED100BF3348806940F480503149CB
:101BB00088610846806900F48050019000BF00BF32
:101BC00000BF0846806940F00400886108468069CB
:101BD00000F00400019000BF00BFA020029002208E
:101BE00003900320059002A92348FFF7A3F94020A2
:101BF000029000200390049002A91F48FFF79AF971
:101C000033E01E49206888422FD100BF1948C069BF
:101C100040F480401749C8610846C06900F480401C
:101C2000019000BF00BF00BF0846806940F0080077
:101C300088610846806900F00800019000BF00BF7D
:101C40004FF420400290022003900320059002A947
:101C50000B48FFF76FF94FF480400290002003908B
:101C6000049002A90648FFF765F906B010BD000010
:101C700000300140001002400008014000380040E0
:101C8000000C01402DE9F8430446884616461D46DF
:101C900094F85100012802D00220BDE8F883606862
:101CA000B0F5827F0CD1A06850B9042084F85100AF
:101CB0003346424641462046009500F083F9ECE762
:101CC000FFF7E6FA0746B8F1000F00D00EB9012081
:101CD000E3E700BF94F85000012801D10220DCE7BF
:101CE000012084F8500000BF042084F85100002037
:101CF0006065C4F83880A687E6872063A086E08602
:101D000020646064A068B0F5004F0BD120680068C3
:101D100020F04000216808602068006820F48040BE
:101D2000216808602068006800F04000402805D065
:101D30002068006840F0400021680860E06830BB1F
:101D400021E02068806800F0010050B12068007B2D
:101D5000A16B0870A06B401CA063E08F401EE08761
:101D600011E0FFF795FAC01BA84201D3681C00B927
:101D70004DB9012084F8510000BF002084F85000C4
:101D800000BF032089E7E08F0028DAD125E021E0B9
:101D90002068806800F0010050B12068C068A16B25
:101DA0000880A06B801CA063E08F401EE08711E0DC
:101DB000FFF76EFAC01BA84201D3681C00B94DB9E9
:101DC000012084F8510000BF002084F8500000BFBB
:101DD000032062E7E08F0028DAD13A462946204600
:101DE00000F052FD08B120206065012084F8510008
:101DF00000BF002084F8500000BF606D08B10120D2
:101E00004BE7002049E72DE9F84304460F46164604
:101E10001D46FFF73DFA8046B14694F8510001286F
:101E200002D00220BDE8F88307B10EB90120F9E71E
:101E300000BF94F85000012801D10220F2E70120F0
:101E400084F8500000BF032084F851000020606532
:101E50002763A686E686A063A087E0876064206487
:101E6000A068B0F5004F0BD12068006820F040005A
:101E7000216808602068006840F48040216808609C
:101E80002068006800F04000402805D02068006805
:101E900040F0400021680860E068B0F5006F37D17D
:101EA000606810B1B9F1010F09D1206B0088216879
:101EB000C860206B801C2063E08E401EE08623E01B
:101EC0002068806800F0020002280AD1206B008898
:101ED0002168C860206B801C2063E08E401EE08675
:101EE00012E0FFF7D5F9A0EB0800A84201D3681C67
:101EF00000B94DB9012084F8510000BF002084F8DA
:101F0000500000BF03208DE7E08E0028D8D136E0D6
:101F1000606810B1B9F1010F09D1206B0078216818
:101F20000873206B401C2063E08E401EE08623E097
:101F30002068806800F0020002280AD1206B007837
:101F400021680873206B401C2063E08E401EE086F1
:101F500012E0FFF79DF9A0EB0800A84201D3681C2E
:101F600000B94DB9012084F8510000BF002084F869
:101F7000500000BF032055E7E08E0028D8D142462C
:101F80002946204600F0BCFC08B120206065A0680E
:101F900050B900BF002000902068C0680090206801
:101FA0008068009000BF00BF012084F8510000BF8E
:101FB000002084F8500000BF606D08B1012031E7B7
:101FC00000202FE72DE9FE4F04460F4690461D46A0
:101FD0000C9E01200190FFF75BF9814694F851B007
:101FE00060680290AA46BBF1010F0BD00298B0F5D1
:101FF000827F04D1A06810B9BBF1040F02D0022087
:10200000BDE8FE8F1FB1B8F1000F00D00DB901205F
:10201000F6E700BF94F85000012801D10220EFE755
:10202000012084F8500000BF94F85100042802D029
:10203000052084F8510000206065C4F83880E587E9
:10204000A5872763E586A58620646064206800680C
:1020500000F04000402805D02068006840F04000B3
:1020600021680860E068B0F5006F52D1606810B177
:10207000BAF1010F09D1206B00882168C860206B7C
:10208000801C2063E08E401EE0863BE02068806874
:1020900000F00200022810D1E08E70B101980128F2
:1020A0000BD1206B00882168C860206B801C2063E6
:1020B000E08E401EE086002001902068806800F0DD
:1020C000010068B1E08F58B12068C068A16B08803A
:1020D000A06B801CA063E08F401EE0870120019070
:1020E000FFF7D6F8A0EB0900B0420BD3701C48B143
:1020F000012084F8510000BF002084F8500000BF88
:1021000003207DE7E08E0028C0D1E08F0028BDD1FC
:1021100052E0606810B1BAF1010F09D1206B00786C
:1021200021680873206B401C2063E08E401EE0860F
:102130003CE02068806800F00200022810D1E08EA8
:1021400070B1019801280BD1206B007821680873C9
:10215000206B401C2063E08E401EE0860020019032
:102160002068806800F0010068B1E08F58B12068F5
:10217000C068A16B0870A06B401CA063E08F401E7C
:10218000E08701200190FFF783F8A0EB0900B0423F
:1021900001D3701C00B94EB9012084F8510000BF72
:1021A000002084F8500000BF032029E7E08E0028BB
:1021B000BFD1E08F0028BCD14A463146204600F00E
:1021C0009FFB40B12020606500BF002084F85000D4
:1021D00000BF012014E7A06850B900BF00200090A4
:1021E0002068C068009020688068009000BF00BF31
:1021F000012084F8510000BF002084F8500000BF87
:10220000606D08B10120FBE60020F9E670B50446D8
:102210002546681EB0F1807F01D301200FE0681EC3
:102220004FF0E02148610F214FF0FF3000F042FEF7
:1022300000204FF0E021886107200861002070BD78
:1022400010B504460CB9012010BDA06900B100E032
:1022500000BF94F8410028B9002084F840002046CF
:1022600000F02AF8242084F841002068C06820F497
:1022700000502168C860204600F040FC20680069DA
:1022800020F49040216808612068406920F02A000D
:10229000216848612068C06840F400502168C86027
:1022A00000206064202084F8410084F8420000206F
:1022B000606300BFC8E7000010B586B00446002088
:1022C00002900390049005901A49206888422ED10C
:1022D00000BF1948806940F480401749886108466A
:1022E000806900F48040019000BF00BF00BF084635
:1022F000806940F0040088610846806900F00400AD
:10230000019000BF00BF48150290022003900320F7
:10231000059002A90948FEF70DFE4FF48060029077
:1023200000200390049002A90448FEF703FE06B0C3
:1023300010BD0000003801400010024000080140BC
:102340002DE9F84F04460E46174699464FF0000A0D
:1023500094F84100202850D106B117B90120BDE8FA
:10236000F88F00206064212084F84100FEF790FF80
:102370008246A784E784A068B0F5805F04D1206915
:1023800010B90025B04602E035464FF000081EE0C7
:102390005346002280212046CDF8009000F02CFC0E
:1023A00020B1202084F841000320D8E745B9B8F8CF
:1023B0000000C0F308002168486008F1020803E04B
:1023C0002878216848606D1CE08C401EE084E08C19
:1023D0000028DDD15346002240212046CDF8009050
:1023E00000F00AFC20B1202084F841000320B6E769
:1023F000202084F841000020B1E70220AFE700BFB1
:10240000FEE7000010B504490868804741F2342017
:10241000FEF777FA10BD00006C38000810B50249CD
:102420000869804710BD00006C38000870B54FF493
:10243000427000F029FC20B1132835D017286DD147
:1024400061E0002000F036FE00234CF25032012102
:10245000184601F09FF80446002C12D12F2131A01C
:10246000FDF7A6FE28B12F212EA0FDF7A1FE401CEE
:1024700000E02CA006462E22314630A000F002FDDE
:1024800011E02F2127A0FDF793FE28B12F2125A0D1
:10249000FDF78EFE401C00E022A0064632223146A7
:1024A0002DA000F0EFFC39E03248028832490020CC
:1024B00000F050FE0546012D12D12F2119A0FDF785
:1024C00077FE28B12F2117A0FDF772FE401C00E017
:1024D00014A006463A22314628A000F0D3FC11E0B1
:1024E0002F2110A0FDF764FE28B12F210DA0FDF7CC
:1024F0005FFE401C00E00BA006463E22314628A0AD
:1025000000F0C0FC0AE04FF4027000F0BDFB00F0E8
:10251000010008B1002070BD0120FCE700BF0120D0
:10252000F9E700002E2E5C496E745C6574685C49A6
:102530006E745F77353530302E6300005B25733A5B
:1025400025645D7735353030CDA8B5C030B4F2BFE5
:10255000AAB3C9B9A60D0A005B25733A25645D7755
:1025600035353030CDA8B5C030B4F2BFAACAA7B057
:10257000DC0D0A005E0000205A0000205B25733A43
:1025800025645DCDA8B5C030C1B4BDD3D4B6B3CC3D
:10259000B7FECEF1C6F7B3C9B9A60D0A0000000018
:1025A0005B25733A25645DCDA8B5C030C1B4BDD3F9
:1025B000D4B6B3CCB7FECEF1C6F7CAA7B0DC0D0ACD
:1025C0000000000010B501F029F900228021144814
:1025D000FEF758FE0A20FDF722FF01228021104855
:1025E000FEF750FE0A20FDF71AFF06220D494FF4B0
:1025F000106000F003FC04220A490E31900100F043
:10260000FDFB042207490A314FF4A06000F0F6FBFD
:1026100004220449891D4FF4706000F0EFFB10BDE7
:10262000002001406000002070B504460D4600BF48
:10263000FFF7FCFE0028FBD12A46214600F0EAFE07
:1026400070BD000000B585B000200190029003909D
:10265000049000BF4B48806940F0400049498861C0
:102660000846806900F04000009000BF00BF00BF36
:102670000846806940F0100088610846806900F0D3
:102680001000009000BF00BF00BF0846806940F006
:10269000040088610846806900F00400009000BFD3
:1026A00000BF00BF0846806940F008008861084606
:1026B000806900F00800009000BF00BF00BF08461E
:1026C000806940F4807088610846806900F48070F9
:1026D000009000BF00BF00BF0846806940F02000A6
:1026E00088610846806900F02000009000BF00BFAC
:1026F000002260212448FEF7C5FD01224FF4C141AC
:102700002248FEF7BFFD012208212148FEF7BAFD4D
:102710000420019000200290039001A91A48FEF7BE
:1027200009FC60200190012002900020039002200B
:10273000049001A91448FEF7FDFB40200190002001
:102740000290039001A91148FEF7F4FB4FF4C14039
:10275000019001200290002003900220049001A922
:102760000A48FEF7E7FB08200190012002900020B4
:1027700003900220049001A90548FEF7DBFB05B099
:1027800000BD000000100240001801400020014080
:102790000014014010B50E480E4908604FF48270D5
:1027A000486000210B488160C160016141614FF4C4
:1027B000007181610821C161002101624162816271
:1027C0000A21C162FFF782F908B1FEF79BFB10BD39
:1027D000003001407C00002010B50E480E49086012
:1027E0004FF48270486000210B488160C160016134
:1027F00041614FF4007181610021C1610162416258
:1028000081620A21C162FFF761F908B1FEF77AFB24
:1028100010BD000000380040D400002010B50B4867
:102820000B4908604FF4E13048600021084881609E
:10283000C16001610C21416100218161C161FFF72B
:10284000FFFC08B1FEF75EFB10BD00000038014040
:102850002C01002000BFFEE700BFFEE7704700002C
:1028600008B508490968C9084FF47A72B1FBF2F15A
:102870004143009100BF00BF00994A1E0092002909
:10288000F9D108BD0C000020F8B504460E461546E7
:102890006068B0F5827F0DD1A068B0F5004F03D01D
:1028A000A068B0F5806F05D12068006820F0400076
:1028B000216808606068B0F5827F11D1A068B0F52A
:1028C000806F0DD13346002201212046009500F093
:1028D00039F898B1606D40F0200060650320F8BDC4
:1028E0003346002280212046009500F02BF828B1C5
:1028F000606D40F0200060650320F0E70020EEE707
:10290000F8B504460E4615463346012202212046FC
:10291000009500F017F828B1606D40F02000606568
:102920000320F8BD3346002280212046009500F0A8
:1029300009F828B1606D40F0200060650320F0E7E1
:102940000020EEE72DE9F84F04460D4690461E465E
:10295000DDF82890FEF79CFCA0EB0900371AFEF783
:1029600097FC82462C480068C0F3CB307843009037
:1029700045E0701C002842D0FEF78AFCA0EB0A005C
:10298000B84200D2A7BB2068406820F0E000216870
:1029900048606068B0F5827F0DD1A068B0F5004F47
:1029A00003D0A068B0F5806F05D12068006820F0E2
:1029B000400021680860A06AB0F5005F0DD100BF3B
:1029C0002068006820F400502168086020680068D2
:1029D00040F400502168086000BF012084F85100D5
:1029E00000BF002084F8500000BF0320BDE8F88F2E
:1029F000FFE7009800B900270098401E009020686B
:102A000080682840A84201D1012000E00020404514
:102A1000AFD10020EAE700000C000020704710B59D
:102A2000FEF73CFC10BD00B58FB0282105A8FDF7CE
:102A3000B4FB14216846FDF7B0FB012005900004AB
:102A40000690002007900120099002200C90C103FD
:102A50000D914FF4E0110E9105A8FEF705FE08B1A7
:102A6000FEF750FA0F200090022001900020029003
:102A70004FF4806003900020049002216846FEF726
:102A8000CFFC08B1FEF73EFA0FB000BD704700BFA3
:102A900000BF02680C3252E8002F22F490710268E5
:102AA0000C3242E80013002BF3D100BF00BF00BF7F
:102AB0000268143252E8002F22F001010268143239
:102AC00042E80013002BF3D100BF016B01290ED1A6
:102AD00000BF00BF02680C3252E8002F22F0100144
:102AE00002680C3242E80013002BF3D100BF202112
:102AF00080F84210002101637047000070B5044661
:102B00002168096921F44051E2681143226811618A
:102B10002269A1681143626941EA02052168C96816
:102B200041F20C62914329432268D16021684969CE
:102B300021F44071A2691143226851612D4A216834
:102B4000914202D1FEF748FD01E0FEF735FD00EBB2
:102B5000C00101EB001162689200B1FBF2F100EBE1
:102B6000C00202EB001263689B00B2FBF3F2642325
:102B7000B2FBF3F202EBC20303EB0212A1EB820100
:102B8000322202EB01116422B1FBF2F101F0F001FB
:102B900000EBC00202EB001263689B00B2FBF3F291
:102BA0006423B2FBF3F201EB021200EBC00101EB74
:102BB000001163689B00B1FBF3F100EBC00303EB72
:102BC00000136668B600B3FBF6F36426B3FBF6F3B6
:102BD00003EBC30606EB0313A1EB8301322303EBE4
:102BE00001116423B1FBF3F101F00F0111442268DC
:102BF000916070BD003801402DE9F84304460D4650
:102C000017469846089E31E0701C70B3FEF740FBF3
:102C1000A0EB0800B04200D816B90320BDE8F88345
:102C20002068C06800F00400F8B1802D1ED0402D4F
:102C30001CD020680068C0F3C000B0B100BF002005
:102C4000009020680068009020684068009000BFF5
:102C500000BF2046FFF71BFF0820606400BF002074
:102C600084F8400000BF0120D8E7FFE72068006833
:102C70002840A84201D1012000E00020B842C3D082
:102C80000020CBE700BFFEE738B504461A49C86804
:102C9000804719494869804700BF1748406A10B10A
:102CA0001548806A70B91448016AC4F30740884720
:102CB0001148016AC4F307208847E0B20E4A116A3E
:102CC00088470DE0200C8DF80000200A8DF80100E7
:102CD000E0B28DF8020008480321826A68469047F6
:102CE0000549C86980470546034988698047024904
:102CF00008698047284638BD28000020F8B50446FA
:102D00000E4617461F49C86880471E4948698047D4
:102D100000BF1C48406A10B11A48806AC0B91948FF
:102D2000016AC4F3074088471648016AC4F30720C4
:102D30008847E0B2134A116A8847002505E0114927
:102D4000C86980477055681C85B2BD42F7DB12E048
:102D5000200C8DF80000200A8DF80100E0B28DF8FB
:102D6000020008480321826A6846904705483946B0
:102D7000426A30469047034988698047014908699B
:102D80008047F8BD2800002038B504460D461A4992
:102D9000C868804718494869804744F004041648C9
:102DA000806A90B91448016AC4F307408847124802
:102DB000016AC4F307208847E0B20F4A116A8847C6
:102DC0000D48016A284688470FE0200C8DF8000066
:102DD000200A8DF80100E0B28DF802008DF8035052
:102DE00005480421826A68469047034988698047FC
:102DF00001490869804738BD28000020F8B504461D
:102E00000E4617461E49C86880471D4948698047D5
:102E100044F004041A48806AC0B91948016AC4F32E
:102E2000074088471648016AC4F307208847E0B284
:102E3000134A116A8847002505E0705D104A116A3F
:102E40008847681C85B2BD42F7DB12E0200C8DF884
:102E50000000200A8DF80100E0B28DF80200084859
:102E60000321826A6846904705483946826A30469F
:102E70009047034988698047014908698047F8BD40
:102E8000280000200FB4054B10B503A9044A02988E
:102E900000F034F810BC5DF814FB0000B1320008FB
:102EA0007800002002480068C0F30220704700004C
:102EB0000CED00E010B5002804DB0A07130E054AEC
:102EC000135406E00A07140E034A00F00F031B1FF9
:102ED000D45410BD00E400E018ED00E002E008C8A2
:102EE000121F08C1002AFAD170477047002001E084
:102EF00001C1121F002AFBD1704700002DE9FF4FCE
:102F00008BB09A460F460546002606E025280BD0D2
:102F100052460D9990476D1C761C28780028F5D1F3
:102F20000FB03046BDE8F08F0024A0460122604972
:102F300000E0044315F8013F203B02FA03F0084289
:102F4000F7D128782E2817D115F8010F44F0040482
:102F50002A280ED06FF02F022878A0F1300109291D
:102F60000AD808EB880102EB410100EB01086D1C57
:102F7000F2E757F8048B6D1C287869283ED006DCF0
:102F80000028CDD063280BD0642804D136E0732804
:102F900010D075284BD052460D999047761C85E08D
:102FA00017F8040B8DF8000000208DF80100E946A9
:102FB000012003E057F8049B4FF0FF3061074FF00A
:102FC000000401D40AE0641C44450DDA8442FADBB3
:102FD00019F804100029F6D106E0641C8442FCDBD9
:102FE00019F804100029F8D1264404E019F8010B5F
:102FF00052460D999047641EF8D257E001CF4FF02A
:103000000A0B002802DA40422D2102E0210504D5F6
:103010002B218DF82410012103E0E10705D02021A8
:10302000F7E70DF1200908910CE00021F9E701CF45
:103030004FF00A0BF9E75946FDF75AF901F1300252
:1030400009F8012D0028F6D1ADEB090000F1200BA5
:10305000600701D44FF00108D84502DDA8EB0B0052
:1030600000E000208046002406E009A85246005DEA
:103070000D999047641C761C08988442F5DB04E0A7
:10308000302052460D999047761CB8F10001A8F106
:103090000108F5DC05E019F8010B52460D9990473F
:1030A000761CBBF10001ABF1010BF4DC6D1C34E7C5
:1030B0000928010010B5044600BF082C02DD4FF0BE
:1030C000FF3010BD00BFA100491C4FF4807202EB1D
:1030D000C1001021FFF758FE00BFA100491C4FF4AA
:1030E000807202EBC100FFF7CFFD0028F5D1A100EF
:1030F000491C4FF4007202EBC1001F21FFF744FE90
:103100000120A0400F49098881430E480180012019
:10311000A0400D49098881430B48018000200B49DC
:1031200021F814000A49085500BFA100491C4FF4BA
:10313000407202EBC100FFF7A7FD0028F5D1012086
:10314000BFE700001A0000201C00002088020020B9
:103150001E00002070B504460D46164600BF082C20
:1031600002DD4FF0FF3070BD00BF00BFA100491C61
:10317000002202EBC100FFF787FD00F00F000128DD
:1031800002D06FF00400EEE700BF00BFA100491CB1
:103190004FF4407202EBC100FFF776FD132802D016
:1031A0006FF00200DFE700BF2978687861F31F2025
:1031B0000146A87861F31F200146E87861F31F20DB
:1031C0000146481C00B111B96FF00B00CBE716B9EE
:1031D0006FF00A00C7E7A100491C4FF4406202EB00
:1031E000C10004222946FFF709FE3112A200521C39
:1031F0004FF4805303EBC200FFF7C6FDF1B2A2000B
:10320000521C4FF4805303EBC20202F58070FFF7AB
:10321000BBFDA100491C4FF4807202EBC1000421E8
:10322000FFF7B2FD00BFA100491C4FF4807202EB12
:10323000C100FFF729FD0028F5D10120A0401B495E
:103240000988084008B100208DE722E0A100491C50
:103250004FF4007202EBC100FFF716FD00F008000A
:1032600058B1A100491C4FF4007202EBC1000821C3
:10327000FFF78AFD6FF00C0075E7A100491C4FF4C1
:10328000407202EBC100FFF7FFFC10B96FF00300C2
:1032900069E7A100491C4FF4407202EBC100FFF73F
:1032A000F3FC1728D2D101205DE700001A000020AE
:1032B00013B50C464FF47A73012269460248FFF7B2
:1032C0003FF800981CBD00002C01002070B504469A
:1032D0000025002600BFA100491C4FF4005202EB5C
:1032E000C100FFF7D1FC0646A100491C4FF4005273
:1032F00002EBC10101F58070FFF7C6FC00EB062070
:1033000086B2AEB1A100491C4FF4005202EBC100DD
:10331000FFF7BAFC0546A100491C4FF4005202EB2E
:10332000C10101F58070FFF7AFFC00EB052085B20D
:10333000B542D0D1284670BDFDF7BCFFFFF773FB47
:10334000FFF780F9FFF76AFAFFF724FAFFF744FA6C
:103350002F210EA0FCF72CFF28B12F210BA0FCF78A
:1033600027FF401C00E009A00446622221460CA071
:10337000FFF788FDFFF746F8FFF724F904E0FFF7B1
:103380004DF80120FDF751F8F9E700002E2E2F43EC
:103390006F72652F5372632F6D61696E2E6300002B
:1033A0005B25733A25645D67617465776179207385
:1033B000746172740D0A000000B131B9054A064B00
:1033C0005A61064B044A936102E0034A50619161DD
:1033D00070470000D137000828000020BD370008E2
:1033E00000BF094A128802F40072002AF9D000B125
:1033F00031B9064A044BDA61054B034A136202E015
:10340000014AD0611162704728000020E5370008AA
:10341000053800082DE9F041044688461546002687
:10342000002700BF082C02DD701EBDE8F08100BF40
:1034300000BFA100491C002202EBC100FFF724FCE1
:1034400000F00F00012802D06FF00400EDE700BF8C
:1034500000BF15B96FF00D00E7E700BFA100491CE0
:103460004FF4407202EBC100FFF70EFC0646172E28
:1034700004D01C2E02D06FF00600D6E70120A04039
:1034800042490988084040B3A100491C4FF400722A
:1034900002EBC100FFF7F8FB00F01F0606F010007A
:1034A00080B1A100491C4FF4007202EBC100102151
:1034B000FFF76AFC0120A040344909888143334862
:1034C00001800AE006F0080028B12046FFF7F2FD6F
:1034D0006FF00C00A9E70020A7E7A100491C4FF4FA
:1034E000F85202EBC100FFF7CFFB4FF6FF7101EA84
:1034F0008027BD4200DD3D4623E02046FFF7E6FE83
:103500000746A100491C4FF4407202EBC100FFF7CF
:10351000BBFB0646172E07D01C2E05D02046FFF712
:10352000C9FD6FF0060080E70120A0401849098816
:10353000084018B1BD4201DD002076E7BD4200DC45
:1035400000E0DAE700BF2A464146204600F0ECF8EA
:10355000A100491C4FF4807202EBC1002021FFF74B
:1035600013FC00BFA100491C4FF4807202EBC100A4
:10357000FFF78AFB0028F5D10120A0400349098804
:1035800008430249088028464FE700001C0000203D
:103590001A000020F8B504460E4617461D4600BF27
:1035A000082C02DD4FF0FF30F8BD00BF012E06D021
:1035B000022E10D0032E10D0042E0FD10CE00422C6
:1035C00069464FF47060FFF799FB009810B96FF0EF
:1035D0000200E9E705E000BF00BF02E06FF0040071
:1035E000E2E700BF05F0040010B16FF00500DBE773
:1035F00005B3012E02D0022E1AD106E005F02100FB
:1036000010B96FF00500CFE713E005F0200028B1F6
:1036100005F0800010B96FF00500C5E705F0100057
:1036200028B105F0800010B96FF00500BCE700E09C
:1036300000BF00BF2046FFF73DFD05F0F00242EA63
:103640000601A200521C002303EBC200FFF79CFB03
:103650007FB9304807880088401C2E4908800846FA
:1036600000884FF6F071884203D14FF44040294959
:1036700008803912A200521C4FF4806303EBC20091
:10368000FFF782FBF9B2A200521C4FF4806303EBF8
:10369000C20202F58070FFF777FBA100491C4FF4CE
:1036A000807202EBC1000121FFF76EFB00BFA10099
:1036B000491C4FF4807202EBC100FFF7E5FA0028C5
:1036C000F5D10120A04014490988814312480180A6
:1036D00005F00100A0401049098808430E49088000
:1036E0000120A0400D49098881430C480180002039
:1036F0000B4921F814000B49085500BFA100491CD3
:103700004FF4407202EBC100FFF7BEFA0028F5D07B
:1037100060B249E7180000201A0000201C000020B9
:10372000880200201E0000202DE9F04704460F46C5
:1037300016460025A8460EB9BDE8F087A100491C31
:103740004FF4105202EBC10101F58070FFF79CFAB3
:103750008146A100491C4FF4105202EBC100FFF753
:1037600093FA09EB002085B22902A000801C01EB2E
:10377000C008324639464046FFF740FBA81985B2DB
:103780002912A200521C4FF4105303EBC200FFF7A2
:10379000FBFAE9B2A200521C4FF4105303EBC20231
:1037A00002F58070FFF7F0FA00BFC5E70146087820
:1037B00070470170704770477047000010B50122D4
:1037C00008210248FDF75EFD10BD00000014014015
:1037D00010B5002208210248FDF754FD10BD00007D
:1037E0000014014008B5002000904FF47A730122C4
:1037F00069460348FEF746FA9DF8000008BD000040
:10380000D400002001B54FF47A73012269460248C2
:10381000FEF7F9FA08BD0000D400002000B5044905
:103820000448FFF7C9FD04490448FFF7D9FD00BD6E
:10383000BD370008D137000805380008E537000813
:1038400002030405060708090A0B0C0D0E0F1010E1
:10385000010200000000000000000102030406074E
:10386000080900000000010203040000010600082E
:1038700015080008890A0008210A00088D060008BA
:10388000E50600088505000813050008060B01067B
:103890000B01060B010508010608020607020605D2
:1038A00004060501C01200001F000000A816000059
:1038B00017000000841C00000F000000E425000039
:1038C0001E000000B42D00001600000008390000A2
:1038D0000E0000002C4C00001D000000685B000082
:1038E00015000000747200000D00000058980000E0
:1038F0001C00000034B7000014000000E8E40000E1
:103900000C000000783101001B000000686E01000F
:103910001300000034CA01000B00000028620200FE
:103920001A00000040DB0200120000003C9303007C
:103930000A000000C0C204001900000060B30500C6
:1039400011000000382007000900000020A1070036
:103950000000000074390008000000207C00000016
:10396000DC2E0008F03900087C0000201C06000056
:10397000EC2E000800000000100000000100000014
:1039800000127A00000000000000000000C00000EB
:103990000000000000000000000000000102573598
:1039A0003530300000000000B7370008B937000894
:1039B000D1370008BD370008AD370008B33700081D
:1039C0000000000000000000000000000000707D0A
:1039D00059082F850008DC122212C0A83782FFFF89
:1039E000FF00C0A837010000000000000000000038
:0400000508000131BD
:00000001FF
